:1000000000800020BD010000590800002508000004
:10001000250800002508000025080000250800002C
:1000200025080000250800002508000059080000E8
:100030005908000025080000B5580000055B0000C5
:10004000590800005908000059080000590800002C
:10005000590800005908000059080000590800001C
:10006000590800005908000059080000590800000C
:1000700059080000590800005908000059080000FC
:1000800059080000590800005908000059080000EC
:1000900059080000590800005908000059080000DC
:1000A00059080000590800005908000059080000CC
:1000B00059080000590800005908000059080000BC
:1000C00059080000590800005908000059080000AC
:1000D000590800005908000059080000590800009C
:1000E000590800005908000059080000590800008C
:1000F000590800002519000059080000811F000060
:1001000059080000E52300005908000059080000C4
:10011000590800005908000059080000590800005B
:10012000590800005908000059080000590800004B
:10013000590800005908000059080000590800003B
:10014000590800005908000059080000590800002B
:10015000055C0000195C00002D5C0000415C0000A3
:10016000590800000927000059080000590800003C
:1001700059080000590800005908000059080000FB
:1001800059080000590800005908000059080000EB
:1001900059080000590800005908000059080000DB
:1001A00059080000590800005908000059080000CB
:1001B0005908000059080000C13F0000564B4CF29E
:1001C000205210B51A804DF628121A8000BF00BFC9
:1001D00000F045FB514B4FF010621A60504A9A6094
:1001E000504ADA60504A136813F4807301BF4F49D4
:1001F0000B604FF4A85313604D4B4E491A7810070B
:1002000042BF1A7842F008021A704B4B2A221A7029
:100210004A4A4B4B8B4204D252F8040F43F8040B6A
:10022000F8E7484B484A0021934202D243F8041BA6
:10023000FAE7464A4648002350F8231042F82310B4
:1002400001336F2BF8D1434B434A802103F8011B44
:100250009342FBD1414B3D4A1A60414B8A221A70AE
:10026000A3F5805324225A70A0221A709A7991071C
:10027000FCD59A79D206FCD43A4A937903F00C0360
:10028000082B384BF9D103221A7140225A719A79FE
:100290009406FCD533498A79324B5006FBD5324A55
:1002A000324911600221516020221A709A7902F0BD
:1002B0000C020C2AFAD12E4B2E4A1A602E4B4BF60A
:1002C0007F321A6000225A60072243F8042C2B4A1E
:1002D000C3F80C2D62B600F0EAFF144B1B68DA0776
:1002E00005D5274800F0CAFC264B274A1A60274B41
:1002F0001B785B0609D5234C234B22689A4204D114
:100300001F4800F0BBFC0023236008F03FFF00F013
:10031000ADFA06F02BF8FEE70E20054030800440D1
:10032000823F04000100002B10D0034014D0034092
:1003300002D007400C8CFF1F00E007403CD90000B2
:100340002087FF1F108CFF1FFC93FF1F0082FF1FE1
:100350000000000000E400E05FE400E008ED00E0E1
:100360000050064000400640448004400000131145
:1003700004800440C010050014E000E000002020CC
:10038000000000001CE00340A5C3945A00F00740A1
:10039000FFFFFFFFFFFFFFFFFFFFFFFFFFFFFFFF6D
:1003A000FFFFFFFFFFFFFFFFFFFFFFFFFFFFFFFF5D
:1003B000FFFFFFFFFFFFFFFFFFFFFFFFFFFFFFFF4D
:1003C000FFFFFFFFFFFFFFFFFFFFFFFFFFFFFFFF3D
:1003D000FFFFFFFFFFFFFFFFFFFFFFFFFFFFFFFF2D
:1003E000FFFFFFFFFFFFFFFFFFFFFFFFFFFFFFFF1D
:1003F000FFFFFFFFFFFFFFFFFFFFFFFFFFFFFFFF0D
:10040000FFFFFFFFFFFFFFFFFFFFFFFFDEF9FFFF23
:1004100010B5054C237833B9044B13B10448AFF33E
:1004200000800123237010BD108CFF1F000000000E
:1004300040D90000084B10B51BB108490848AFF37C
:1004400000800848036803B910BD074B002BFBD0A0
:10045000BDE81040184700BF00000000148CFF1FCB
:1004600040D900000C8CFF1F00000000F0B5374A97
:10047000374B11680906FCD4196811F08001F8D1D6
:1004800072B634480378002B5DD0334B334A1F6873
:1004900004330C321B6852F80C6C52F8085C52F8AA
:1004A000044C12683B4433442B4423441344C3F3A9
:1004B0004E032B4A43F4004313602A4B1F68043356
:1004C00040321B6852F80C6C52F8085C52F8044C2D
:1004D00012683B4433442B4423441344C3F34E0378
:1004E000214A43F400431360204B02F500221F68A9
:1004F000043310321B681668556894683B440C320C
:10050000334412682B4423441344C3F34E03184A64
:1005100043F400431360174B1F68043340321B68D9
:1005200052F80C6C52F8085C52F8044C12683B44C8
:1005300033442B4423441344C3F34E030E4A43F481
:1005400000431360017062B6F0BD00BF24B00340E9
:1005500024B00B402C8CFF1F38B0034040B0034048
:100560002CB0034058B0034030B0034038B00B40CB
:100570002CB00B4058B00B4030B00B4030B5214B85
:10058000214D2248224960221A70E1225A702C78AB
:10059000204A03F58E23082C03F10C0301D101241A
:1005A00002E00A2C03D139240460132005E00C2C4E
:1005B0000CBF35243D240460122008601460164AE4
:1005C0001860537815491046154A03B101230B6092
:1005D00013606978134A144B012901D880210BE07C
:1005E000042901D8842107E0082901D8852103E0E6
:1005F000102994BF8621872111601960012303709F
:1006000030BD00BF004007400488FF1F08B0034012
:100610000CB0034008B00B402C8CFF1F20B00340EF
:1006200020B00B4024B0034024B00B400D4B5A784F
:1006300058B1AAB9012159701B7823B10A4B1A602D
:1006400003F500231A60FFF799BF4AB158701B7871
:10065000002BF8D0044B186003F500231860F2E774
:10066000704700BF2C8CFF1F24B003400C2810B42F
:1006700004D9102828BF1020102307E00A2804D826
:1006800008288CBF0A23082300E00C23DCB20A4AA6
:100690000A49201A9070087883420BD013780C70A6
:1006A0002BB1074A0023136002F50022136010BC2F
:1006B000FFF764BF10BC70472C8CFF1F0488FF1F1E
:1006C00024B0034010B5144B1B7804460BB1FFF760
:1006D000CDFE012C114A02D80023136018E0042C2F
:1006E0000F4903D8042313600B6011E0082C04D8D1
:1006F000052313600B6008230AE0102C95BF062326
:1007000007231360136095BF0B600B601023202339
:10071000044A537010BD00BF2C8CFF1F24B003404F
:1007200024B00B400488FF1F28282DE9F0414CD845
:10073000274B1D5CFF2D48D0264C23780BB1FFF7CB
:1007400095FE290615D472B6234E01273560E77051
:1007500062B672B633681A0604D5204B00221B68B5
:10076000E27025E0E378002BF0D062B607F060F984
:10077000EFE772B61A4EDFF8708005F04007FFB25F
:1007800005F03F05336817B123F0100301E043F093
:10079000100333600123C8F80050237162B672B6AB
:1007A000D8F800301B0609D50E4B00221B682271B9
:1007B00062B6A07843FA00F0BDE8F0812379002BFF
:1007C000E0D062B607F034F9E9E70020BDE8F08137
:1007D0006CD000002C8CFF1F00B0034010B0034011
:1007E0000CB00B4010B00B4000B00B40094A13682E
:1007F00043F480531360084B5A78084B0AB18022A7
:1008000000E0C0221A7080F30C00054B00B2188083
:10081000704700BF2C8004402C8CFF1F21C00C406F
:1008200000C00C4008B50B4D2C462B68580301D571
:1008300001F06AFF2368590501D501F073F82368B8
:100840001A0501D501F09CFB2368DB04EDD501F00E
:10085000C9FDEAE73480044008B5FFF7E3FF024B27
:1008600010221A80704700BF0020054070470A49D7
:1008700008B50B6868B16A461844A2F580529042E8
:1008800006D308F07DFC0C2303604FF0FF3008BD59
:100890000860184608BD00BF0888FF1F0020704789
:1008A0004FF0FF3070474FF400534B60002070470B
:1008B000012070474FF0FF307047FEE7FEE70078F9
:1008C000B0FA80F040097047012303707047FEE7DB
:1008D000EFF31380A8B9EFF31082A2B9EFF3058309
:1008E00023B10F2B05D9084A985C03E04FF48070C0
:1008F00000E01046EFF311832BB1984228BF184651
:1009000070474FF0FF307047F0E300E030B503462A
:100910000020B3FBF2F402FB1433092B94BF3033F5
:100920003733DBB20B5423460CB10130F1E70A1820
:1009300023465470C41AA34206DACC5C1578CD5411
:1009400002F801490133F5E7084630BD031E10B532
:100950000C4603DBBDE81040FFF7D8BF2D2001F89F
:10096000010B5842FFF7D2FF204610BD2DE9F0439E
:1009700081EAE17985B00F46A9EBE17901460646A7
:1009800015461C4608F098FB78B30021304608F065
:100990006BFB002814BF042003204845B4BFC0EB04
:1009A00009050025002F07DA60192023844202D0B0
:1009B00004F8013BFAE7002530464FF07E5363F31D
:1009C0001E00002108F050FB10B12D2323700134CC
:1009D00041234E226370E31C2270A270581920221A
:1009E00083423CD003F8012BFAE726F00048774910
:1009F000404608F061FBA8BB4046744908F03EFB46
:100A0000804678BB0021304608F02EFB002814BF3A
:100A1000042003204845B4BFC0EB09054546002F1C
:100A200007DA60192023844202D004F8013BFAE778
:100A300000250021304608F017FB10B12D2323704C
:100A40000134492323704E2346226370E31CA270B5
:100A500058192022834202D003F8012BFAE7002321
:100A60000370B0E002AB01AA2946304608F07BFBD8
:100A7000814665B9019B53B990F80090544B554A93
:100A8000B9F1340F94BF9146994601230193019B1C
:100A90005B429D42BCBFDFF83C916B424846B8BF09
:100AA000019308F041FD019B98428046C8BF00F1C8
:100AB0000108002B02D108F1010825E024DA1DB35A
:100AC0002B44984205F102081ED9A946B9F1000F3E
:100AD00007DD3046404908F029F909F1FF3906469B
:100AE000F4E7002DACBF691B294602AB03AA3046D0
:100AF00008F039FB019B039A691CD21A8A4208BF8D
:100B00000133814608BF0193029808B108F101083A
:100B1000C8EB0703002B04EB080208DD1A4421464A
:100B200023442026994203D001F8016BFAE72346BB
:100B300010B12D21197001330199002909D135B166
:100B40001946302001F8020B2E2058700B462E2536
:100B500022E0FCDA002DFAD01D46302005F8020B09
:100B60002E265E702B46C91A00255E1803D503F8A1
:100B7000010B0125F9E7002DE9D00196E7E7581CA4
:100B800019F8011B1970824209D0019901390191AC
:100B900009B9981C5D7003469A42F0D800E01346EC
:100BA000002F0DDA47447F42194620207A1A1A4452
:100BB000002A02DD01F8010BF8E7002FA8BFDB19BE
:100BC00000221A70204605B0BDE8F083FFFF7F7F4A
:100BD00097D0000095D000000000204170471030F1
:100BE000014B43F8201070470082FF1F194B03EBA5
:100BF000C000426802F14043A3F592217C2910D93C
:100C0000A3F594217C290ED9A3F596217C290CD932
:100C1000A3F598217C290AD9A3F59A237C2B08D91E
:100C200070470D4906E00D4904E00D4902E00D4909
:100C300000E00D4972B6136823F0877323F4803304
:100C400043F080731360C2F38402084B41F82230F2
:100C500062B670479CD00000B488FF1F6488FF1FF5
:100C60003488FF1F1488FF1F0C88FF1FDD0B000056
:100C7000014B1868704700BF00D00340044B054982
:100C800000221A600A60044A106010221A6070473D
:100C900014D0034004D0034000D0034000280EDBF2
:100CA00003024FF48072B3F5004F06D3013A012AD4
:100CB000A3EB000101D00B46F5E71B0A10E043420D
:100CC0001B024FF48072B3F5014F06D3013A012A9B
:100CD00000EB030101D00B46F5E71B0AC3F5807357
:100CE000013A43EA0223014A136070470CD00340E3
:100CF00020B11028034628BF102300E00123034A37
:100D000092F8E00082F8E030704700BF0C88FF1FC7
:100D10002DE9F041884605462C492D4E404608F005
:100D2000A3F947F61223002816BF022701271E4603
:100D3000002426FA04F007F0A1FF4FF05E5107F0FF
:100D4000F5FF0146404608F0A3F910B90134072C1D
:100D5000EFD126FA04F007F091FF414608F09AF827
:100D60004FF07C5107F0D8FE08F0BCF94FF6FF7346
:100D7000984228BF1846EB1E012B06D8154B164982
:100D800000221A600A60154A18E0172D0CD8144B7F
:100D9000EB4003F0010383F001023BB1114B124918
:100DA0001A600A60114A09E0202D01D0192D0BD1DB
:100DB0000F4B104900221A600A600F4A106044EA83
:100DC000C7041C60BDE8F081BDE8F081001BB7409E
:100DD000006CDC0200900340049003400890034044
:100DE0006006F00000800340048003400880034058
:100DF00000800B4004800B4008800B40212810B578
:100E000018D80D4B53F8302092F880423CB10123A2
:100E100011B182F8803010BD82F8003110BD03EBB3
:100E2000C0035B681A6811B142F0030201E022F0CE
:100E300002021A6010BD00BF9CD0000021289FBF95
:100E4000044B53F8303093F80002C0B288BF002042
:100E5000704700BF9CD00000212810B52BD8164A3F
:100E600002EBC00301295B68144601D004290FD1AD
:100E700054F83020012082F880024FF4A2721A60E8
:100E80001A6804290CBF42F0200222F0200211E06F
:100E900052F83000002280F8802211B94FF480729D
:100EA00008E0022902D140F2031203E0032908BF3F
:100EB0004FF481721A6010BD9CD00000212870B5DB
:100EC0000E4659D8042A57D8DFE802F0070905036F
:100ED0000B00092306E00A2304E0082302E00C23A8
:100EE00000E00B231D04254B03EBC0035C68216865
:100EF00011F4E06101D1FFF7AFFF214B214AC3F8A4
:100F00009C21214AC3F8A021204AC3F8A421204AE9
:100F1000C3F8A8211F4AC3F8AC2104F14043A3F54C
:100F200092227C2A10D9A3F594227C2A0ED9A3F50B
:100F300096227C2A0CD9A3F598227C2A0AD9A3F5FB
:100F40009A237C2B08D970BD134B06E0134B04E0A9
:100F5000134B02E0134B00E0134B72B6226822F4ED
:100F60007022226042F08071C4F3840243F8226050
:100F700045EA0103236062B670BD00BF9CD000004B
:100F80000082FF1FD187FF1FA587FF1F7987FF1FE3
:100F90004D87FF1F2187FF1FB488FF1F6488FF1F35
:100FA0003488FF1F1488FF1F0C88FF1F282838B5BE
:100FB00004464E4B10D193F8E0300B2B03D8C3F10D
:100FC0000C03994003E00C2B1CBF0C3B1941084655
:100FD000BDE83840FFF70ABC93F8E020012500295E
:100FE00005FA02F301DC002102E08B4204D8294615
:100FF000FFF704FF294674E00338C3B2012B01D880
:101000003B4B06E0202C01D0192C01D1394B00E0DC
:10101000394B1B6803FB0113D3401D2859D8DFE867
:1010200000F03F45392758581B21585858585858F0
:101030005858582D330F1558515858585858584B20
:101040002E4A136040F244422D4B40E02D4A13607B
:1010500040F244422C4B3AE02C4A136040F24442A6
:101060002B4B34E02B4A136040F244422A4B2EE0D3
:101070002A4A136040F24442294B28E0294A13606F
:1010800040F24442284B22E0284A136040F2444296
:10109000274B1CE0274A136040F24442264B16E0DF
:1010A000264A13604FF45172254B10E0254A136015
:1010B0004FF45172244B0AE0244A13604FF45172EA
:1010C000234B04E0234A1360234B4FF451721A6000
:1010D00038BD7F29D4BF002101212046FFF78EFEB5
:1010E00001212046BDE83840FFF7B6BE0C88FF1F3F
:1010F0000890034008800B400880034010800340A4
:1011000004B004401880034008B00440208003402D
:101110000CB004402880034010B0044030800340ED
:1011200010C004403880034014C004404080034095
:1011300018C00440488003401CC004401090034085
:1011400030900440189003403490044010800B40CD
:1011500048A0044018800B404CA004402DE9F04109
:1011600007460E4690460825012408EA0401384641
:10117000FFF744FE01213046FFF740FE00213046D4
:10118000FFF73CFE6400013DE4B2EED1BDE8F08122
:101190002DE9F04107460E4690460824802508EACE
:1011A00005013846FFF72AFE01213046FFF726FEEB
:1011B00000213046FFF722FE013C4FEA5505EED1F3
:1011C000BDE8F08112B91A46FFF7C8BF1A46FFF70B
:1011D000DFBF2DE9F04180460F4608260025012497
:1011E00038460121FFF70AFE4046FFF727FE00B10F
:1011F000254300213846FFF701FE6400013EE4B2BA
:10120000EED12846BDE8F0812DE9F04180460F4639
:1012100008250024802638460121FFF7EFFD4046CF
:10122000FFF70CFE00B1344300213846FFF7E6FD1E
:10123000013D4FEA5606EED12046BDE8F0810AB9DD
:10124000FFF7C7BFFFF7E0BF72B60B4B0B4A0C4965
:101250001B681268096862B6490102D5322B88BF43
:101260000132C3F53B4330207F33B3FBF0F34FF43F
:101270007A7000FB0230704718E000E0348CFF1FEA
:1012800004ED00E038B50446FFF7DEFF054624B95B
:1012900038BD013C0AD005F57A75FFF7D5FF401B34
:1012A000B0F57A7FF5D206F0C3FBF6E738BD224BE6
:1012B0004FF4000210B51A604FF080721A604FF0C0
:1012C00000721A604FF080621A604FF000621A607C
:1012D0001A4B1B4A1B4C00204BF6FF7118605960DB
:1012E0002823136093601361936113629362136305
:1012F00093630922226004F5805404342060616005
:10130000A360236144F8042C04F5FE2420600E48F9
:1013100001600E490B608B600D4B1A60FFF72EF9D0
:101320003220FFF7AFFF01F0F5FC4FF4AF70BDE8DE
:101330001040FFF7A7BF00BF08E100E004800340B2
:101340000C8003400080034008800B400C800B4061
:1013500000800B4070B50646C1EBC10433782BB159
:10136000013CFBD1002070BD013CFBD03378002B49
:10137000FAD0FFF769FF0546337813B1013CFBD182
:10138000F0E7FFF761FF401B70BD70B50646C1EB8B
:10139000C10433782BB9013CFBD1002070BD013C66
:1013A000FBD03378002BFAD1FFF74EFF0546337898
:1013B00013B9013CFBD1F0E7FFF746FF401B70BDBE
:1013C00021280DD8074B53F8300021B1114600F504
:1013D0000070FFF7BFBF114600F50070FFF7D5BFE3
:1013E000002070479CD00000224A136843F48063B9
:1013F0001360214B00221A705A709A70DA701A71B9
:101400005B792BB1152B07D140F213321B4B02E055
:101410001B4B40F213321A601A4B1B78012B05D07C
:10142000052B07D14FF45172174B02E0174B4FF4C5
:1014300051721A601F28164B98BF2020C0F3443207
:101440001A70C0F347125A700221042200F01F00E4
:1014500098729A70D9745A7588221A743C22DA707C
:101460000C4B40226FF44A711A700B444FF4005237
:101470001A60704734800440388CFF1F18C0044045
:1014800040A00440ED88FF1F1CC0044044A004405D
:1014900000A006402DE400E0134B9A7802F0EC0126
:1014A00000F003020A43410748BF42F010029A705D
:1014B0000D4900F00F02042A02BF8A7942F040026F
:1014C0008A715A79C30602F0EF02074B48BF42F017
:1014D00010025A719A79810602F0EF0248BF42F079
:1014E00010029A71704700BF00A006401C4B1B6899
:1014F0005B0510B500D410BD1A4C2279194B02F0CF
:10150000FF0112B106F094FAF7E7174A4FF40050C2
:101510001060164AD1705A792AB1152A07D140F2C3
:101520000311134A02E0134A40F203111160124AF8
:10153000127802F07F02012A05D0052A07D140F275
:1015400003110E4A02E00E4A40F20311116000221C
:101550001A705A709B680BB101221A7010BD00BF3F
:1015600034800440388CFF1F84E100E000A0064076
:1015700018C0044040A00440ED88FF1F1CC0044078
:1015800044A004400A4A38B50446137903F0FF0525
:10159000002BFAD101212046FFF75EFC29462046A8
:1015A000FFF72CFC034B53F83420014BDA6038BDB5
:1015B000388CFF1F9CD0000010B509B140F08000AE
:1015C000144A13789842144622D0134A12685205DE
:1015D0001DD503F07F03012B04D0052B05D100227C
:1015E0000E4B01E00E4B00221A60002900F07F0232
:1015F00014BF60234423012A05D0052A07D143F4F0
:101600004073064A02E0064A43F4407313602070B8
:1016100010BD00BFED88FF1F348004401CC0044093
:1016200044A004400E4B5A79824218D00D490968F3
:10163000490513D52AB1152A05D10B4A002111609D
:1016400001E00A490A6028B1152807D140F2133198
:10165000054A02E0054A40F21331116058717047A3
:10166000388CFF1F3480044018C0044040A0044060
:1016700038B50D4B1B6813F480634FF0000410D095
:1016800021280A4D0AD80A4B012153F83030AB60AB
:10169000FFF7E2FBAB681C70012038BDAC60204650
:1016A00038BD184638BD00BF34800440388CFF1F59
:1016B0009CD000000E4B1B6813F4806316D01228D8
:1016C0000C4B03D140F202310B4A04E0142809D13B
:1016D0000A4A40F2023111605A7B42F001025A7309
:1016E000012070475A7B02F0FE025A7300207047B7
:1016F0003480044000A006400CA0044014C0044004
:101700001E4B1B685A052DE9F041064633D51C4D8A
:10171000EB680BB101221A70AC78DFF86480194FC6
:101720000134402C28BF0024EA78154BA24218D17E
:10173000FFF7CEF840280FDC3B791B06F4D598F86C
:1017400003300133402B28BF0023EA18DBB2127CA0
:10175000D2B2FA71EB70E7E7FF28E5DD06F068F931
:10176000E2E71A19F6B21674E4B201221A719C70FB
:10177000044BBC22DA70BDE8F08100BF3480044025
:10178000388CFF1F00A0064000F00F00092894BF0E
:1017900030303730FFF7B4BF234B1B685A052DE9B3
:1017A000F0413ED5214CE3680BB101221A70DFF8FD
:1017B000808006464718BE4230D2A578E3780135CE
:1017C000402D28BF00259D4208D0631916F8012B33
:1017D0001A74EDB201232371A570ECE7BC2388F8DD
:1017E0000330FFF775F8402810DC98F804301B062A
:1017F00010D5E3780133402B28BF0023E218DBB279
:10180000127CD2B288F80720E37003E0FF2801DDE4
:1018100006F00EF9E3789D42E3D0D6E7044BBC22F4
:10182000DA70BDE8F08100BF34800440388CFF1FBF
:1018300000A0064010B5034C237913B106F0F8F868
:10184000FAE710BD388CFF1F054B9878DA78C0B2E4
:10185000D3B298422CBF3F3303F1FF33181A7047BD
:10186000388CFF1F044B18785A78C0B2D3B2984214
:1018700038BF4030C01A7047388CFF1F10B50F4C6E
:1018800023786278D9B2D2B2914214D0531C402B43
:1018900028BF0023E21892F85000DAB26270A26802
:1018A000C0B252B18B4288BF4031CB1A1A2B04DC34
:1018B0000023137010BD4FF0FF3010BD388CFF1F98
:1018C000084A11785378DBB2994208D00133402B93
:1018D00028BF0023134493F85000C0B270474FF064
:1018E000FF307047388CFF1F0B4B1B685B0512D510
:1018F0000A4BDA7802F0CB02DA7040225A74DA78B6
:1019000042F03402DA70064B5A78D2B21A709B68F1
:101910000BB100221A7070473480044000A00640CA
:10192000388CFF1F70B53348037913F0300F2ED079
:1019300072B6837D03F0FF0523B9C3794023437456
:1019400062B624E062B62C490B784A78DBB2D2B298
:101950005C1C402C28BF00249442C67918BF0B1988
:10196000F6B21CBF83F8506023466C1E14F0FF05CE
:10197000EED1D8B20870896849B1934236BFC2F13E
:1019800040029B1A9B18272BC4BF01230B70194AD6
:10199000D078C0B206061DD513791D061AD5164992
:1019A0008D78CB78EDB2DBB2AB420BD00133402B5C
:1019B00028BF00231479CC18247CE4B2D471147DA0
:1019C000072CF1D9DBB2CB700A4B1A79140644BF4D
:1019D0007C22DA7041060BD5064B1A79520607D5E0
:1019E000054A00211171D26802B111703C22DA70EF
:1019F00070BD00BF00A00640388CFF1F38B5451EE3
:101A000015F8014F44B10A2C02D10D20FFF778FEE2
:101A10002046FFF775FEF3E738BD10B50446000910
:101A2000FFF7B2FE2046BDE81040ADE610B5044613
:101A3000000AFFF7F2FF2046BDE81040FFF7EDBFB8
:101A400010B50446000EFFF7E8FF200CFFF7E5FF96
:101A5000200AFFF7E2FF2046BDE81040FFF7DDBF98
:101A6000224A136843F400631360214B00221A706A
:101A70005A709A70DA701A711E4B1A78092A05D0BA
:101A80001A2A07D140F213311B4A02E01B4A40F2E6
:101A9000133111605B780A2B05D01F2B07D14FF44F
:101AA0005172174B02E0174B4FF451721A601F2806
:101AB000154B98BF2020C0F344321A70C0F3471270
:101AC0005A7000F01F000422022198729A70D97493
:101AD0005A7588221A743C22DA700C4B40221A7014
:101AE000A3F22B334FF400421A6070473480044055
:101AF000C88CFF1FEE88FF1F04D004400CB00440C8
:101B000000D0044010B0044000B006402FE400E0D4
:101B1000134B9A7802F0EC0100F003020A434107EC
:101B200048BF42F010029A700D4900F00F02042ADB
:101B300002BF8A7942F040028A715A79C30602F0E4
:101B4000EF02074B48BF42F010025A719A798106A2
:101B500002F0EF0248BF42F010029A71704700BFD6
:101B600000B006401C4B1B681B0510B500D410BD0F
:101B70001A4C2379194A03F0FF0113B105F058FFFD
:101B8000F7E7174B4FF400401860164BD970164B0F
:101B90001978092905D01A2907D140F203101349F1
:101BA00002E0134940F2031008605B7803F07F0302
:101BB0000A2B05D01F2B07D140F203110D4B02E079
:101BC0000D4B40F20311196000231370537093689A
:101BD0000BB101221A7010BD34800440C88CFF1F65
:101BE00084E100E000B00640EE88FF1F04D004400E
:101BF0000CB0044000D0044010B004400A4A38B58C
:101C00000446137903F0FF05002BFAD10121204689
:101C1000FFF722F929462046FFF7F0F8034B53F867
:101C20003420014BDA6038BDC88CFF1F9CD0000007
:101C300010B509B140F08000144A53789842144618
:101C400022D0134A126812051DD503F07F030A2B18
:101C500004D01F2B05D100220E4B01E00E4B0022B9
:101C60001A60002900F07F0214BF602344230A2A6F
:101C700005D01F2A07D143F44073064A02E0064A02
:101C800043F440731360607010BD00BFEE88FF1F07
:101C90003480044000D0044010B004400F4B1A7848
:101CA00082421AD00E490968090515D5092A04D0BF
:101CB0001A2A05D100210B4A01E00B4A00211160CC
:101CC000092805D01A2807D140F21331054A02E04D
:101CD000054A40F21331116018707047EE88FF1FFB
:101CE0003480044004D004400CB0044038B50D4B9F
:101CF0001B6813F400634FF0000410D021280A4D34
:101D00000AD80A4B012153F83030AB60FFF7A4F832
:101D1000AB681C70012038BDAC60204638BD184649
:101D200038BD00BF34800440C88CFF1F9CD0000029
:101D30000B4B1B6813F4006310D01728094B09D113
:101D4000094A40F2023111605A7B42F001025A7393
:101D5000012070475A7B02F0FE025A730020704740
:101D60003480044000B0064008B004401E4B1B689D
:101D70001A052DE9F041064633D51C4DEB680BB131
:101D800001221A70AC78DFF86480194F0134282CD6
:101D900028BF0024EA78154B944218D1FEF798FD2D
:101DA00040280FDC3B791B06F4D598F8033001334B
:101DB000282B28BF0023EA18DBB2127CD2B2FA71BA
:101DC000EB70E7E7FF28E5DD05F032FEE2E71A19E0
:101DD000F6B21674E4B201221A719C70044BBC2254
:101DE000DA70BDE8F08100BF34800440C88CFF1F6A
:101DF00000B00640234B1B681A052DE9F0413ED583
:101E0000214CE3680BB101221A70DFF8808006468E
:101E10004718BE4230D2A578E3780135282D28BF77
:101E200000259D4208D0631916F8012B1A74EDB2F3
:101E300001232371A570ECE7BC2388F80330FEF77B
:101E400047FD402810DC98F804301B0610D5E378D5
:101E50000133282B28BF0023E218DBB2127CD2B258
:101E600088F80720E37003E0FF2801DD05F0E0FDBE
:101E7000E3789D42E3D0D6E7044BBC22DA70BDE89C
:101E8000F08100BF34800440C88CFF1F00B00640C2
:101E900010B5034C237913B105F0CAFDFAE710BD64
:101EA000C88CFF1F054B9878DA78C0B2D3B298423D
:101EB0002CBF273303F1FF33181A7047C88CFF1F5C
:101EC000044B18785A78C0B2D3B2984238BF403029
:101ED000C01A7047C88CFF1F10B50F4C237862786A
:101EE000D9B2D2B2914214D0531C402B28BF002348
:101EF000E21892F83800DAB26270A268C0B252B149
:101F00008B4288BF4031CB1A1A2B04DC002313709C
:101F100010BD4FF0FF3010BDC88CFF1F084A11786C
:101F20005378DBB2994208D00133402B28BF0023FD
:101F3000134493F83800C0B270474FF0FF30704739
:101F4000C88CFF1F0B4B1B681B0512D50A4BDA7898
:101F500002F0CB02DA7040225A74DA7842F034028E
:101F6000DA70064B5A78D2B21A709B680BB1002215
:101F70001A7070473480044000B00640C88CFF1FC0
:101F800070B53348037913F0300F2ED072B6837DCD
:101F900003F0FF0523B9C3794023437462B624E0FC
:101FA00062B62C490B784A78DBB2D2B25C1C402C6A
:101FB00028BF00249442C67918BF0B19F6B21CBF83
:101FC00083F8386023466C1E14F0FF05EED1D8B2BA
:101FD0000870896849B1934236BFC2F140029B1A2A
:101FE0009B18272BC4BF01230B70194AD078C0B2AD
:101FF00006061DD513791D061AD516498D78CB789E
:10200000EDB2DBB2AB420BD00133282B28BF00234B
:102010001479CC18247CE4B2D471147D072CF1D946
:10202000DBB2CB700A4B1A79140644BF7C22DA70FB
:1020300041060BD5064B1A79520607D5054A0021F1
:102040001171D26802B111703C22DA7070BD00BF0C
:1020500000B00640C88CFF1F164A136843F4805333
:102060001360154A0023137053709370D37013716B
:10207000124A40F2133111604FF4517151601F2820
:1020800098BF20200E4AC0F344311170C0F34711AD
:1020900000F01F0051709072937013742C23D37052
:1020A000084B40226FF44B711A700B444FF400320E
:1020B0001A60704734800440408DFF1F08C0044000
:1020C00000C0064031E400E0134B9A7802F0EC01C6
:1020D00000F003020A43410748BF42F010029A7021
:1020E0000D4900F00F02042A02BF8A7942F0400233
:1020F0008A715A79C30602F0EF02074B48BF42F0DB
:1021000010025A719A79810602F0EF0248BF42F03C
:1021100010029A71704700BF00C00640104B1B6848
:10212000DB0410B500D410BD0E4C21790D4B01F02D
:10213000FF0211B105F07CFCF7E70B494FF40030CA
:1021400008600A490A48CA7040F203110160416000
:102150001A705A709B680BB101221A7010BD00BF33
:1021600034800440408DFF1F84E100E000C0064041
:1021700008C004400A4A38B50446137903F0FF0545
:10218000002BFAD101212046FEF766FE29462046A3
:10219000FEF734FE034B53F83420014BDA6038BDB0
:1021A000408DFF1F9CD0000010B509B140F08000A9
:1021B0000E4B1A78904217D00D4C2468E40412D5C7
:1021C00002F07F02082A02BF0A4A00241460002994
:1021D00000F07F010CBF44226022082902BF05499C
:1021E00042F440720A60187010BD00BFF088FF1FF3
:1021F000348004400CC00440704738B50C4B1B6859
:1022000013F480534FF0000410D02128094D0AD850
:10221000094B012153F83030AB60FEF71DFEAB686F
:102220001C70012038BDAC60204638BD184638BD52
:1022300034800440408DFF1F9CD000000B4B1B6876
:1022400013F4805310D00E28094B09D1094A40F2EB
:10225000023111605A7B42F001025A73012070472B
:102260005A7B02F0FE025A7300207047348004400B
:1022700000C0064004C004401E4B1B68DA042DE970
:10228000F041064633D51C4DEB680BB101221A70A4
:10229000AC78DFF86480194F0134282C28BF002463
:1022A000EA78154BA24218D1FEF712FB40280FDC4A
:1022B0003B791B06F4D598F803300133282B28BF4F
:1022C0000023EA18DBB2127CD2B2FA71EB70E7E7B6
:1022D000FF28E5DD05F0ACFBE2E71A19F6B216744B
:1022E000E4B201221A719C70044BAC22DA70BDE892
:1022F000F08100BF34800440408DFF1F00C00640C5
:1023000038B504464518AC4204D014F8010BFFF769
:10231000B3FFF8E738BD10B5034C237913B105F0CE
:1023200087FBFAE710BD00BF408DFF1F054B987873
:10233000DA78C0B2D3B298422CBF273303F1FF330F
:10234000181A7047408DFF1F044B18785A78C0B296
:10235000D3B2984238BF4030C01A7047408DFF1F3B
:1023600010B50F4C23786278D9B2D2B2914214D012
:10237000531C402B28BF0023E21892F83800DAB231
:102380006270A268C0B252B18B4288BF4031CB1A92
:102390001A2B04DC0023137010BD4FF0FF3010BD6A
:1023A000408DFF1F084A11785378DBB2994208D05C
:1023B0000133402B28BF0023134493F83800C0B2E8
:1023C00070474FF0FF307047408DFF1F044B5A7825
:1023D000D2B21A709B680BB100221A70704700BF0E
:1023E000408DFF1F10B5274B1A7992061FD5264A3C
:1023F000D9791378507801333F2BC8BF002383422B
:1024000018BFD018C9B21EBF80F83810D9B21170E9
:10241000916861B11C4AD278D2B2934236BFC2F100
:1024200040029B1A9B18272BC4BF01230B70154831
:10243000C278D2B2130615D503791C0612D51249FB
:102440008C78CB78DBB29C4202D16C23C37009E05C
:102450000133282B28BF0023CC18DBB2247CE4B244
:10246000C471CB7051060BD5064B1A79520607D5AD
:10247000054A00211171D26802B111702C22DA7064
:1024800010BD00BF00C00640408DFF1F1FB572B6D3
:10249000154B70221A70154A412111700F2102F854
:1024A000011C80221A701A781206FCD5104B18688D
:1024B00062B6104B984298BF0A2301AC98BF5843AC
:1024C0000A222146FEF722FA0B4A0023E15C21B1E1
:1024D00001330A2B22F8021BF8D1084A01335B00B2
:1024E000137004B010BD00BF00000240070002409E
:1024F000080002407F969800F488FF1FF288FF1FB3
:1025000070B50C4B0C4D1A7842F0020605EBC60470
:1025100082F00102606058781A70002814BFC82445
:10252000882480F0010044EA0141587045F83610D3
:1025300070BD00BFB88DFF1F0080FF1F431E032B1F
:1025400010B510D872B6094A02EB8302506840B148
:10255000416851600649048831F81320121B21F8A4
:10256000132062B610BD002010BD00BFB88DFF1F44
:10257000E493FF1F013803280CD8074B03EB8000BE
:10258000436972B600201BB11A885B681044FAE7F1
:1025900062B6704700207047B88DFF1F01380328CE
:1025A0000BD872B6064B03EB80004369002013B1D1
:1025B00001305B68FBE762B670470020704700BFE0
:1025C000B88DFF1F70B472B6194C1A4901231A193D
:1025D00012F8012C12071FD59A00164E51F83250EE
:1025E0002DB906EB431308305860134B09E042F055
:1025F000010251F832507DB906EBC2030830586031
:102600000E4B46F832300E4A92F82430013B82F8E5
:10261000243062B670BC70470133052BD7D162B647
:10262000074B002283F8242070BC00F0D3BB00BF0E
:10263000ACD100000080FF1F88004000C8004000AF
:10264000B88DFF1F431E032B10B533D81A4A400123
:1026500040F01000104472B6184AD41894F825407F
:10266000032C0BD8DFE804F015040207052411E061
:10267000083002240EE0083004240BE09B00D01840
:1026800044690CB9416101E0C06A41601344D962F8
:102690000FE00324134410F0080F0A8883F8254044
:1026A00001F10803436014BFC823882343EA0243AF
:1026B000036062B610BD00BF0080FF1FB88DFF1F12
:1026C000431E032B30B517D80C4C400140F01000CE
:1026D000204472B60A4CE51895F8255015B108301B
:1026E000002500E001252344120442F0800283F813
:1026F00025504160026062B630BD00BF0080FF1F00
:10270000B88DFF1F00BE70472DE9F74FDFF8DC9250
:10271000B64B1D78EDB215F0040F1C461CD0B44A20
:1027200092F84430ABB192F8451001F0FF0329B1A3
:10273000013BDBB282F8453003B900BEAD4A1178E7
:1027400001F0FF0329B1013BDBB213700BB900F0BC
:10275000BDFC042389F8003005F0080303F0FF06F0
:10276000002B00F08182A44BA44E1A78D2B2130938
:102770004FEA920440F0EB8106EBC403596856F827
:102780003430C3F38303013B0C2B00F2DC81DFE820
:1027900013F099019901DA01DA01DA01DA01DA01BB
:1027A000DA01B701DA01DA01DA010D000A68904DA9
:1027B0004B68AA64EB6492B2914B46F8343040F215
:1027C00081600023012182422B653361B36169700E
:1027D0002C4617D8B2F5D06F80F02681B2F5817FF4
:1027E00000F0E18006D8802A00F0C680822A00F03E
:1027F000C88037E140F202339A4200F0E580B2F53A
:10280000A06F1BE042F22100824200F058810DD8F7
:10281000B2F5086F00F0AA80B2F5106F40F0228187
:1028200095F84A2085F844201F460AE042F221210B
:102830008A4200F00E8142F221339A4200F0168162
:1028400010E1F219136A1B0603D5506A083800F02C
:10285000C1FA0837802FF4D16A4F4FF00008A7F172
:10286000110B694A52F828004FEA880A40B14168C2
:102870000192009100F0AEFA0099019A0846F5E73E
:10288000624B42F80A004AF803005AF80B0030B1D4
:102890004268009200F09EFA009A1046F7E75C4BFF
:1028A00003F1180243F80A005A4B4AF8020023F8D1
:1028B00018003B78023B032B07D8DFE803F0020443
:1028C0000204002300E001233B7008F10108B8F185
:1028D000040F07F10107C4D100234F4FDFF820A1F7
:1028E00085F824304FF001084C4B08EB07024344B5
:1028F00012F8012C9B0012F0080F1A704FEA880B97
:1029000025D000F049FA38B106EB4813083058607A
:10291000434B46F83B3006E094F8243046F83B0041
:10292000013384F8243000F037FA4BF0010338B15A
:1029300006EBC30E0830CEF8040046F833A006E0DC
:1029400046F8330094F82430013384F824304BF0F7
:1029500002004BF0030208F101080023B8F1050F53
:1029600046F8303046F83230BED180E095F8443039
:1029700085F83C300B467DE085F83C3085F83D30ED
:1029800077E0B5F84C2002F07F02042A6AD885F877
:102990003C3085F83D309200224B9B5C9E0768D509
:1029A00085F83C1065E0B5F84C2002F07F02042A5F
:1029B00058D8B5F84A30002B54D11A499200114426
:1029C0000A7822F002020FE0B5F84C2002F07F02F4
:1029D000042A47D8B5F84A30002B43D11149920058
:1029E00011440A7842F002020A7040E08020074059
:1029F000B88DFF1FAD8EFF1F902007400080FF1F86
:102A0000C8004000DD8DFF1FBC8DFF1F0C8EFF1F17
:102A1000CC8DFF1FE493FF1FACD1000030C8011024
:102A200088004000C0200740B5F84A20B5F84C1097
:102A3000A94B5C68B4B11888904208D15888884284
:102A400005D1120A032A0CBF23781B8913E00C332B
:102A5000EFE7A24A1168A24A1160A24A95F84A100B
:102A6000117004E0A04B0F221A7028E000231C46CE
:102A700001E002233C34B5F84E609E4228BF1E465A
:102A8000402E374628BF402720463946FFF738FDFD
:102A9000F61B3C4403D1402F11D1374603E0402EB2
:102AA000374628BF402720463946FFF729FDF61B49
:102AB0003C4401D1402F02D12C65A5F8646001226D
:102AC0008A4B3FE08A4AB2F8480042F2210398421A
:102AD00012D188480023CD5C1D540133072BFAD155
:102AE000844B1B680021862B08BF0F23084608BFB4
:102AF00082F84530FFF704FD7F4B46F8343022E082
:102B00007B4F3E6D96B1B7F86440402C254628BFF8
:102B1000402530462946FFF7F3FC601B80B2A7F83A
:102B2000640008B9402D00D170193865B7F8482005
:102B30006F4BB2F5A06F06D1002283F8492093F8BD
:102B40004A206E4B1A70694B01221A7088E02546A4
:102B500006EBC404013B616802F00802DFB2A1F198
:102B6000080002F0FF03002A43D000F033F9604B65
:102B700003EB870ED819DEF8141019B34A68CEF8A3
:102B8000142001F10802626090F82520032A10D871
:102B9000DFE802F00205080B3B44032207E03B4458
:102BA000022204E03B44052201E03B44042283F876
:102BB000252014F0080F0A8814BFC823882343EA8D
:102BC00002434BE090F82520032A09D8DFE802F001
:102BD000484802053B44002208E03B44012205E04E
:102BE00014F0080F14BF032202223B4483F825206F
:102BF00036E056F83520120C1FFA82FE21F808EC58
:102C000032B33B4A21F8063C4FEA870C41F8043CBA
:102C100002EB0C014B680BB9486001E04B6D58604A
:102C20006244DFF8CC805065354A32F8173073447F
:102C300022F8173000F0B0F810B10830606007E0FB
:102C400098F8243046F83500013388F8243007E03E
:102C50002C4A294B14F0080F08BF134646F83530AC
:102C6000082389F8003053E5E8071ED5204A1F4D98
:102C70002448114602232B7001F8686B224BA832BE
:102C800083E80300DA6098601E619E61164B0D2296
:102C90001A701E4AFF2313702370167413711C4B95
:102CA0009F221A7001232B7012E0290604D50E4BC7
:102CB0000D221A7080232370AA0705D5134A1378B2
:102CC000DBB2137002232370EB0644BF1023237082
:102CD00003B0BDE8F08F00BFB0D10000348CFF1FFF
:102CE000F493FF1FAE8EFF1FC020074094200740C3
:102CF000B88DFF1FEC93FF1FC800400098200740CD
:102D0000E493FF1F880040000080FF1F88200740D9
:102D10008420074010B5FFF7B9FB00231948194676
:102D20001950C4180833882B164A6160F8D1164927
:102D30000B6843F480230B60144BC2F30721197016
:102D4000C2F30741120E19751A76114AFF23137048
:102D50000021137202F8703C0123137582F8801071
:102D600013710C4B70226FF450711A700B444FF4B6
:102D700000721A6003F1C04303F5C82310221A70D1
:102D800010BD00BF0080FF1F348004409C2007401E
:102D90008020074049E400E010B572B60B48026895
:102DA000B2FA82F10B2902DD62B6002010BD4FF0AD
:102DB0000043CB4022EA0302026062B6044C48237F
:102DC0004B43E0180022E250426010BD9089FF1F83
:102DD000BC83FF1F0C4B4822C31AB3FBF2F30B2B2F
:102DE00011D80A4A127822B1094A12780AB1FFF7BB
:102DF000E9BB72B607494FF0004222FA03F30A68B2
:102E00001A430A6062B67047BC83FF1FDC8DFF1F48
:102E1000FC8DFF1F9089FF1F10B5104C23686BB10C
:102E2000206843885A1C03441C7A03889A4212D3B0
:102E3000FFF7D0FF094B00221A600DE0084B1B780A
:102E400013B94FF0FF3010BD0320FFF777FB206070
:102E50000028E5D1F5E74280204610BDA08EFF1F77
:102E6000FC8DFF1F10B50B4C236813B122686AB9A3
:102E700002E0094B1B7813B94FF0FF3010BD03205F
:102E8000FFF75CFB20600028F0D1F5E7538813447E
:102E9000187A10BDA08EFF1FFC8DFF1F044B988871
:102EA000044B1A681AB1138852889B1A1844704749
:102EB000E493FF1FA08EFF1F2DE9F84FDFF87890F5
:102EC000DFF878B080460E460027CA4686B39BF8E6
:102ED00000306BB3D9F8003053B90320FFF72EFB55
:102EE000CAF8000020B3038813B9FFF773FFF4E7B3
:102EF000DAF800502B46698833F8084B641AB4425C
:102F000028BF344622461944404606F0ABF96B8888
:102F1000A0442744361B1C442B88A4B2A3426C80D7
:102F2000D4D82846FFF756FF0023C9F80030CDE774
:102F30003846BDE8F88F00BFA08EFF1FFC8DFF1F35
:102F400010B5094B1B786BB1084C206818B1FFF71E
:102F500041FF002323600320FFF7F0FA10B1FFF7D1
:102F600039FFF8E710BD00BFFC8DFF1FA08EFF1FCB
:102F70002DE9F0472B4C2C4F012381460D46237140
:102F80000E46A046002E49D0A36813BB47F2095A4B
:102F90003B7803F0FF020BB9227113E00420FFF726
:102FA000FDFA072807D801232371FFF7F5FEA0607B
:102FB00078B988F80400BAF1010A01D0237B2BB15B
:102FC000012323734FF0FF30BDE8F08704F030FD9C
:102FD000DEE7A168002323734B88C3F14002B242AD
:102FE00028BF324698180B444880B61A073309EBBD
:102FF000020AD14504D019F8012B03F8012FF8E794
:103000004B883F2B06D940230B800420FFF71AFB87
:103010000023A36005236373D146B3E726712846D6
:10302000BDE8F087A08EFF1FFC8DFF1F07B502AB28
:10303000012103F8010D1846FFF79AFF03B05DF870
:1030400004FB10B50D4C01232371A3687BB90C4B15
:103050001B7813B90020207110BD0420FFF79EFAE1
:103060000728F7D8FFF798FEA0600028F2D0A368E1
:10307000588800232371C0F1400010BDA08EFF1FAF
:10308000FC8DFF1F70B50F4B1B78D3B10E4CA5689C
:10309000012626714DB100266B88667329462B8068
:1030A0000420FFF7CFFAA66009E0FFF775FE01469E
:1030B00020B104206573FFF7C5FA00E066730023B2
:1030C000237170BDFC8DFF1FA08EFF1F38B50D4C06
:1030D000237903F0FF059BB9A16831B14B880B80C0
:1030E0000420FFF7AFFAA56038BDFFF755FE014693
:1030F00020B10420BDE83840FFF7A4BA0123637370
:1031000038BD00BFA08EFF1F10B50B1D0430143159
:1031100013F8044C10F8042C624000F8042C13F847
:10312000034C10F8032C624000F8032C13F8024CF7
:1031300010F8022C624000F8022C13F8014C10F831
:10314000012C043362408B4200F8012C00F1040092
:10315000DED110BD30B5031D04310432143011F836
:10316000045C12F8044C6C4003F8044C11F8035C46
:1031700012F8034C6C4003F8034C11F8025C12F88F
:10318000024C6C4003F8024C11F8015C12F8014C3F
:103190006C4003F8014C0433834201F1040102F155
:1031A0000402DCD130BD2B4A73B5034600F58C74A4
:1031B00002F1080610685168254603C50832B2427C
:1031C0002C46F7D1106891889279AA7101240022C7
:1031D0002860A980019200928DF807406A4603CAD0
:1031E0006A46C3F80001C3F8041103CA022283F837
:1031F0001921032283F81A21042283F81B210522B6
:1032000083F81C21062283F81D21072283F81E2142
:10321000082283F81F21092283F820210A2283F83B
:1032200021210B2283F822210C2283F823210D2255
:1032300083F824210E22C3F8080183F825211846BB
:103240000F22C3F80C1183F8184183F8262102B02D
:1032500070BD00BF04D20000C31C00F1F3020021C6
:1032600003F8011F9342FBD100230360704770B540
:10327000084614461D46032D00F1040004F1040421
:1032800012D914F8046C00F8046C14F8036C00F8FC
:10329000036C14F8026C00F8026C14F8016C00F86E
:1032A000016C043DEDB2E6E79C08A0000244A3EBEC
:1032B00084030138014452FA83F39A4204D012F88D
:1032C000010B01F8010FF8E770BD2DE9F04F202A3E
:1032D000044685B0084614D004DC102A09D0182A08
:1032E0000BD012E0C02A08D0B2F5807F09D0802A26
:1032F0000BD10A23236010270BE00C23236018272F
:1033000007E00E232360202703E000232360FF2033
:1033100079E02146FDB251F8043B3C4E01331B01DC
:10332000DBB20246019320462B46FFF7A0FF0DF1CA
:103330000C092B462846012201998B4262D20021BA
:1033400004EB030C1CF801E001F809E00131042949
:10335000F8D1984227D19DF80DE09DF80C10B644A5
:1033600031449EF80FE0C97B82EA0E0E8DF80CE026
:103370009DF80EE0B64412F0800F9EF80FE08DF835
:103380000DE09DF80FE08DF80F10B6444FEA4202B1
:1033900028449EF80FE08DF80EE018BF82F01B0263
:1033A000C0B2D2B212E0202F10D103F01F011029B9
:1033B0000CD10DF10B0111F801EFB6449EF80FE0AE
:1033C00081F800E00DF10F0E7145F4D1C5EB030C4F
:1033D0005FFA8CFC0CF1030121444FF0000E013127
:1033E00019F80E8091F800B0CCEB010A0EF1010E35
:1033F0008BEA0808BEF1040F0AF80380EFD104330A
:10340000DBB299E7002005B0BDE8F08F04D20000E0
:103410002DE9F04F03688FB081460592002B00F034
:10342000FD80031D1A4606A80093FFF793FEDFF800
:10343000F4810126D9F800309E4280F285800F2366
:1034400003930A23029305230DF1280C4FF0000E7D
:103450000193019A029903980EAB1344043202F0CF
:103460000F0201920EAA0A4413F8203C12F8201C05
:10347000029A043202F00F0202920EAA02440430B1
:1034800000F00F00039006A812F8202C10F82E0070
:103490004044414490F80FB091F80FA04FEA4B0020
:1034A0001BF0800F434418BF80F01B004244DB7BBD
:1034B000D27BC1B2049113F0800F4FEA430583EA37
:1034C0000A07049918BF85F01B055740EDB21AF0A2
:1034D000800F4FEA4A0487EA01070AA94FEA42002F
:1034E00087EA050718BF84F01B048BEA030312F078
:1034F000800F01F82E70E4B218BF80F01B008AEA3A
:1035000002075A40C0B2624042408CF80220049A3E
:103510008BEA07078AEA03037D4053400EF1010E50
:1035200065405840BEF1040F8CF801508CF8030040
:103530000CF1040C8DD1009B06A803EB061201369A
:10354000FFF708FEF6B275E7364B9DF818209DF898
:103550001D101A441944D27B8DF818209DF81C20A8
:10356000C97B1A44D27B8DF81C209DF820201A4478
:10357000D27B8DF820209DF824201A44D27B8DF830
:1035800024209DF819208DF819109DF82110194458
:103590001A44C97B8DF81D109DF82510D27B8DF83B
:1035A000252019449DF81A20C97B8DF821109DF81B
:1035B000221019441A44C97B8DF81A109DF8261060
:1035C000D27B8DF8222019449DF81E20C97B8DF8EE
:1035D0001E109DF8231005981A441944D27BC97B0C
:1035E0008DF826209DF827208DF827109DF81F10B4
:1035F0001944C97B8DF823109DF81B1019441344FE
:10360000C97BDB7B8DF81B30009B8DF81F1003EB13
:10361000061206A9FFF79EFD002000E0FF200FB074
:10362000BDE8F08F04D20000F8B507460E461546F7
:103630001C469CB131460698FFF766FD069A38464F
:103640001146FFF7E5FE013C50B929461023069AC2
:103650003846FFF70CFE10361035EAE72046F8BD75
:10366000FF20F8BD2DE9F04180460F4616461C4666
:1036700000F580759CB139462846FFF745FD2A467E
:1036800029464046FFF7C4FE013C58B93146102395
:103690002A464046FFF7EBFD10371036EAE7204692
:1036A000BDE8F081FF20BDE8F0812DE9F04F99B031
:1036B00004460F920268002A00F08181031D10ADBC
:1036C00003EB021228460A93FFF744FDBE4B9DF818
:1036D00040209DF849101A44194492F80F218DF8A2
:1036E00040209DF8442091F80F111A4492F80F21C0
:1036F0008DF844209DF848201A4492F80F218DF847
:1037000048209DF84C201A4492F80F218DF84C2047
:103710009DF84D208DF84D109DF8451019441A4420
:1037200091F80F118DF849109DF8411092F80F2172
:103730008DF8412019449DF8422091F80F118DF821
:1037400045109DF84A1019441A4491F80F118DF84C
:1037500042109DF84E1092F80F218DF84A2019441E
:103760009DF8462091F80F118DF846109DF84710EE
:1037700009951A44194492F80F2191F80F118DF808
:103780004E209DF843208DF843109DF84B10069372
:1037900019441A4491F80F118DF847109DF84F10F5
:1037A00092F80F218DF84F201944227891F80F11CB
:1037B0008DF84B100192019B581E10F0FF030193EE
:1037C00000F0F6800A9B019A099903EB021214A8F3
:1037D000FFF7C0FC0DF150084FF0000C14AB08F1DE
:1037E00004081CF80330029318F8033C039318F8FC
:1037F000023C049318F8013C0593029B049A4FEA9B
:10380000430913F0800F039B18BF89F01B0913F0C5
:10381000800F4FEA43034FEA420418BF83F01B03B3
:1038200012F0800F059A5FFA89FA18BF84F01B0422
:103830004FEA420912F0800FDBB218BF89F01B0972
:103840004FEA4A0E1AF0800F5FFA84FB4FEA4307F3
:1038500018BF8EF01B0E13F0800F5FFA89F918BFA6
:1038600087F01B074FEA4B061BF0800F5FFA8EFEB6
:103870004FEA490518BF86F01B0619F0800FFFB20A
:103880004FEA4E0418BF85F01B051EF0800F4FEA6B
:10389000470118BF84F01B0417F0800FF6B218BF61
:1038A00081F01B01EDB2CAB216F0800F4FEA46005C
:1038B000079218BF80F01B006A0015F0800F18BF38
:1038C00082F01B02D2B20892029A0799E4B26240D7
:1038D0000B92039A4A400C92049A0899C0B2424053
:1038E0000D92059A4A400E92089A07996A40049DE3
:1038F00085EA0A0570408EEA04040C9E5D4065402E
:1039000075400E9E45407540069E3544099E95F8CB
:103910000F510CF806500CF1050518AE05F00F0517
:103920003544059E73400B9E8BEA03037940734038
:103930000D9E4B407340069E5340334493F80F3125
:1039400005F8203C0CF10A0318AD03F00F032B44DB
:10395000029D85EA0B0E89EA0E0E0C9D84EA0E0488
:103960006C4044400E984440344494F80F0103F8EE
:10397000200C0CF10F0318A803F00F030344039865
:1039800080EA0A070B9889EA070780EA07090D9879
:1039900081EA090141404A4032440CF1040C92F89A
:1039A0000F2103F8202CBCF1100F7FF417AF02E7B2
:1039B0000F980A9A0999FFF7CDFB019800E0FF20C4
:1039C00019B0BDE8F08F00BF04D20000F0B5074683
:1039D00085B00D4616461C46DCB110232A466946C2
:1039E0003846FFF744FC324629463846FFF75DFE6D
:1039F000013C08B1FF200DE030460A99FFF784FB37
:103A000010236A460A993846FFF731FC1036103504
:103A1000E2E7204605B0F0BD2DE9FF4107460D461F
:103A200016461C4600F58078DCB110232A4669460C
:103A30003846FFF71CFC324629463846FFF735FE6C
:103A4000013C08B1FF200DE030464146FFF75CFB2A
:103A500010236A4641463846FFF709FC10361035F8
:103A6000E2E7204604B0BDE8F08173B502AC64E93A
:103A700002232646054603CEC5F80001C5F8041109
:103A800003CCC5E93E23C5F80801C5F80C1102B006
:103A900070BDD0E93E23013243F10003C0E93E236B
:103AA000034653F8F82FC0F800215A68C0F80421E3
:103AB0001A68C0F808215A68C0F80C217047D0F87D
:103AC00014017047D0F810017047C0F81411704706
:103AD00050F8F83F0B6043684B6003688B604368A5
:103AE000CB60704701390B0702D1C0F814110DE00B
:103AF000094B0B40002BBEBF03F1FF3363F00F03F4
:103B00000133C3F110030B44C0F81431D0F8143161
:103B1000591AC0F8101170470F00008038B50446DC
:103B20001546D0F81421284605F09CFBD4F8143132
:103B3000D4F810219B1A2B44D4F814115A1B91422B
:103B400007DDD4F81021224492F8172103F8012B45
:103B5000F2E738BD30B58B1813F8013C0F2B0BD8AA
:103B6000541ED21A0344944206DB93F81751085DA1
:103B7000854203D1013CF6E7012030BD002030BD75
:103B80002DE9F74FD0F81451102495FBF4F5EDB260
:103B900081468A46002705F1FF3BFBB29D4218D9BA
:103BA00032B15F4502BFD9F81041C4F11004E4B24C
:103BB0003B010AEB030823440AEB0306B04506D099
:103BC00018F8010B019205F03FFC019AF6E7013766
:103BD000E3E70A2003B0BDE8F04F05F035BC70B54F
:103BE0000D4616460C46631B9E4205DD14F8011B6C
:103BF000044805F011FCF6E70A20BDE8704005F026
:103C000023BC00BF13D400002DE9F04182B00D4663
:103C100002AF114604461E46FFF764FFD0F8143188
:103C2000073323F00703ADEB030D0DF108084246FF
:103C30002946FFF773FFFA69B969D4F814312046B1
:103C4000102593FBF5F5FFF740FB3B6A00933246E6
:103C50002B4641462046FFF7E7FCBD46BDE8F08114
:103C6000F8B50D4600AF114604461E46FFF73AFF71
:103C7000D0F81431073323F00703ADEB030D6A4688
:103C80002946FFF74BFFFA69B969D4F81431204689
:103C9000102593FBF5F5FFF718FB2B4632466946D6
:103CA0002046FFF7DFFCBD46F8BD2DE9F041044694
:103CB0001F460E461546DDF82080C4F814210699EB
:103CC000079AFFF702FBCDF8188010233A4695FBC0
:103CD000F3F331462046BDE8F041FFF777BE2DE90A
:103CE000F04104461F460E461546C4F814210699B5
:103CF000079AFFF7EAFA10233A4695FBF3F33146A9
:103D00002046BDE8F041FFF787BE00BFC029F0B5EF
:103D100028BFC02172B6134A0023106093809360BD
:103D2000D360136153619361D36101278B4203D147
:103D300000234FF482740BE05C0902EB840403F06F
:103D40001F0507FA05F6A5683543A5600133EDE7C1
:103D50008B4204D004FB030253800133F8E762B6C0
:103D6000F0BD00BFB08EFF1FF0B572B61D4B998835
:103D700003F1080000EB8102064603F12005AA4288
:103D800002D362B60020F0BD144654F8040B10B9FB
:103D900001312246F3E7B0FA80F54FF00044EC40E1
:103DA00020EA0400106000B901311C8C99800134B4
:103DB000A7B21F8462B6921B9210C5EB42124FF459
:103DC00082714A4302F5FB5219681C3201258D5459
:103DD0005B8C9C4288BF034B01EB020088BF5F8471
:103DE000F0BD00BFB08EFF1F10B5428872B60378D9
:103DF000012B02D9013B037014E00B4B511103EB73
:103E00008104D2434FF0004002F01F0220FA02F278
:103E1000A06810439A88A06091421A8C38BF99809C
:103E2000013A1A8462B610BDB08EFF1F30B5C36868
:103E30007BB1187A90420AD158685C7A006950F8D0
:103E4000245025B940F82410087801300870DB6848
:103E5000EEE730BD437A8B4288BF02694FF0000322
:103E600086BF52F8210042F821301846704738B515
:103E7000437A8B4201D8002038BD036953F82140B2
:103E8000002243F82120002CF5D02378012B0ED9F5
:103E9000FFF76AFF054628B14FF48072211D0430F8
:103EA00005F0E0F92378013B2370284638BD204611
:103EB00038BD037C30B5002B2CD14368427A5B7A45
:103EC0009A4227D872B60268D3682BB9D06011E045
:103ED0001C68A24204D00B46D9680029F8D108E03A
:103EE0005D684468A542F6D11C8903899C42F2D1E1
:103EF0000FE0D8600023C360937A013393720268A5
:103F00004168012313728A7A1A448A7242681372D2
:103F1000037462B630BD037C002B2BD04368427A19
:103F20005B7A9A4226D872B60268D36813B3984275
:103F300004D1C368D36004E0984202D0DB68002B50
:103F4000FAD14368427A1B69002143F822100268C3
:103F5000937A013B937203689A7A02B91A724268A3
:103F6000937A013B937243689A7A02B91A720023DA
:103F7000037462B67047094B93F824205AB9084A73
:103F8000D0211170A2F256324FF080410120116011
:103F900083F8240070470020704700BFB08EFF1FD9
:103FA0005EE400E0044B4FF080421A60034B0022B5
:103FB00083F82420704700BF88E100E0B08EFF1F27
:103FC000194A136843F080732DE9F0411360174AD2
:103FD000174D136843F001031360164A2F68946A63
:103FE00016469CB1237A7BB12368D5F800801B6804
:103FF000204698472A68E388C8EB0202120991B26A
:104000009A42A18088BFE1806469EAE72B68F18D5C
:10401000DB1B1B098B429AB288BF064BB28588BF57
:10402000DA85BDE8F08100BFFCED00E0001000E0A3
:10403000041000E0B08EFF1F72B6BFF35F8FBFF3B6
:104040004F8FBFF36F8F0120704780F31088BFF34D
:104050005F8FBFF34F8FBFF36F8FBFF35F8FBFF3E0
:104060004F8FBFF36F8F704710B5044CC0F80441F9
:1040700080F8381180F8392110BD00BF01100138D7
:1040800090F81C0170470023C0F81011C0F81421EB
:10409000A0F818317047C0F81011C0F81421A0F82A
:1040A0001831704790F81A311BB1002380F81A318B
:1040B000012318467047F8B50446EFF31085FFF763
:1040C000BBFF70B394F81A0158B30BB100200CE099
:1040D000D4F814613688581C9BB29E4215D9D4F886
:1040E0001061F65CCE540346F2E7D4F814613688CA
:1040F00000F1010E80B2B04207D2D4F810713F5CDB
:104100001844801B0F547046EFE7D4F814311B8815
:1041100013800023284684F81A31FFF796FF012008
:10412000F8BD2846FFF791FF0020F8BD0023FFF7F8
:10413000C2BF90F81B01704708B5024801F012FA9F
:1041400008BD00BFF089FF1F064B1B684FF00042FF
:1041500041F08051DA625963DA6A002AFCDA9B6B1B
:10416000704700BFF089FF1F70B50D4616460C461C
:10417000631B9E4205DD14F8011B024801F0F2F9B1
:10418000F6E770BDF089FF1F70B50D4616460C4668
:10419000631B9E4206DD0021034801F0E3F904F8A9
:1041A000010BF5E770BD00BFF089FF1F2DE9F0415D
:1041B000044616461F4601F03F08EFF31085FFF74F
:1041C0003BFFD0B1D4F804110E4801F093F900215F
:1041D00094F83801FCF712FE41460A4801F0C2F992
:1041E0003A4631462046FFF7CFFF94F838010121C7
:1041F000FCF704FE034801F0C1F92846BDE8F04190
:1042000023E700BFF089FF1F2DE9F84301F03F01CC
:104210007F2A04469846BDF8209041F0400628D8F1
:10422000D5B2EFF31087FFF707FFF0B1D4F8041110
:10423000114801F05FF9002194F83801FCF7DEFD28
:1042400031460D4801F08EF929460B4801F08AF9F4
:104250004A4641462046FFF797FF94F8380101216E
:10426000FCF7CCFD044801F089F93846BDE8F84375
:10427000EBE6BDE8F88300BFF089FF1F01F03F01C6
:104280002DE9F04104461746984641F08005EFF3CA
:104290001086FFF7D1FED0B1D4F804110E4801F01A
:1042A00029F9002194F83801FCF7A8FD29460A48AD
:1042B00001F058F9424639462046FFF755FF94F879
:1042C00038010121FCF79AFD034801F057F9304607
:1042D000BDE8F041B9E600BFF089FF1F2DE9F843C2
:1042E0007F2A04461F46BDF8208041F0C00928D827
:1042F000D5B2EFF31086FFF79FFEF0B1D4F80411AA
:10430000114801F0F7F8002194F83801FCF776FD28
:1043100049460D4801F026F929460B4801F022F9DB
:10432000424639462046FFF71FFF94F83801012125
:10433000FCF764FD044801F021F93046BDE8F8437C
:1043400083E6BDE8F88300BFF089FF1F48780B784B
:1043500043EA002070470B0A5370117070470868D9
:10436000704713B5042304460DEB0302FFF71EFF4D
:1043700001A92046FFF7F3FF02B010BD0B0ED3706A
:104380000B0C93700B0A53701170704737B50D46C4
:10439000114601AAFFF7F2FF04230DEB03022946A1
:1043A000FFF76CFF03B030BD2DE9FF410446012249
:1043B0005A49002302A801F097F8029BC4F804317F
:1043C0006420FCF75FFF36212046FFF7CAFF054651
:1043D00020F0030242F001023621204625F070450C
:1043E000FFF7D4FF25F003050120FCF74BFF45F054
:1043F000010236212046FFF7C9FF0120FCF742FFEA
:1044000045F0704236212046FFF7C0FF0520FCF73B
:1044100039FFEFF31088FFF70FFE002868D0D4F8BB
:1044200004113F4801F066F894F838010021FCF7C8
:10443000E5FC002503230422012602A92046F627D5
:104440008DF80B308DF808708DF809508DF80A60E2
:10445000FFF78AFE314694F83801FCF7CFFC30486C
:1044600001F08CF8D4F804112D4801F043F82946E6
:1044700094F83801FCF7C2FCED238DF808300623D0
:1044800004228DF8093002A9802320468DF80B30D4
:104490008DF80A50FFF768FE314694F83801FCF7B2
:1044A000ADFC1F4801F06AF84FF42063013BFDD1D9
:1044B0001B48D4F8041101F01DF8294694F838017E
:1044C000FCF79CFC0223042202A920468DF80B3045
:1044D0008DF808708DF809508DF80A50FFF744FEEA
:1044E00094F838013146FCF789FC0D4801F046F894
:1044F0004046FFF7AAFD01220A49002301A800F067
:10450000F3FF019BC4F804310120FCF7BBFE00233C
:1045100084F81B3104B0BDE8F08100BF20A1070082
:10452000F089FF1F002D310110B54FF48072044651
:104530000D21FFF72BFF022384F81B3110BD38B586
:1045400004460D46FFF7F0FFA4F8185138BDC0F837
:1045500014210022C0F81011A0F81821FFF7E4BFC1
:1045600038B504461D460023C0F81011C0F81421C8
:10457000A0F81831FFF7D8FFA4F8185138BD10B5CE
:10458000402204460D21FFF701FF002384F81B3170
:1045900010BD08B500220B79FFF7E1FE42EA0002E8
:1045A0001046194608BD00990B71130ECB70130C01
:1045B0008B70130A4B700A70704738B50C46043183
:1045C0000546FFF7CCFE2146034628460022FFF7AA
:1045D000C6FE42EA00021046194638BD2DE9F743EF
:1045E0000F210446FFF7BDFEC507064640F1C48013
:1045F00010F4005200F09180002310F4804284F8FF
:104600001B3100F08380D4F81031002B7CD01021B6
:104610002046FFF7A6FEC0F30900D4F81421831E3C
:104620009BB21380B4F8182122B1D4F81011D21A19
:104630000A4401E0D4F8102120461121FFF7B6FD0D
:10464000700561D502AD002305F8083D8DF80730EF
:104650002A468DF806308DF805308DF804308DF837
:1046600003308DF802308DF80130152105232046E6
:10467000FFF79CFD29462046FFF79FFF04F5947342
:10468000C3E900012A46032320461421FFF78EFDCB
:104690009DF802209DF801309DF8000012F0040FF3
:1046A0001AD0D24302F00701DA43D3B2C0438DF8E7
:1046B0000130C0B203EB01238DF8000000EB0320B2
:1046C0008DF8021003F076FE00222F4B03F026FD3A
:1046D000054601F1004106E003EB022300EB032055
:1046E00003F068FE054626A3D3E90023284603F01D
:1046F000C7FE264B002203F0EDFF04F59877012357
:10470000C7E9000184F81A314FF48042310448BFF0
:1047100042F4004242F4005500E01546330626D527
:1047200002AE002306F8083D84F81B318DF80730EF
:104730008DF806308DF805308DF804308DF8033093
:104740008DF802308DF801303246052317212046BE
:10475000FFF72CFD31462046FFF72FFF04F590733D
:10476000C3E90001012384F81C3145F080052A4685
:104770000F212046FFF70AFE03B0BDE8F08300BF1B
:104780000000000080842E410000F03F00007F41C7
:10479000024B586A08B1FFF721BF7047E88EFF1F30
:1047A000024B186808B1FFF719BF7047E88EFF1F6A
:1047B000024B586808B1FFF711BF7047E88EFF1F22
:1047C0000099180EC871180C88710B71180A130E15
:1047D000CB70130C8B70130A48714B700A707047C2
:1047E000F0B5044685B015461F46EFF31086FFF777
:1047F00023FCC0B3012384F81B31204613460A462C
:104800000921FFF73BFD08212046FFF7AAFD20F410
:104810007F7222F0030202352A4308212046FFF767
:10482000B5FDC7B1DDE90A23B4F800010021121A71
:10483000104863EB010302ADFF2102400B4020460C
:104840000095FFF7BDFF2A4605230A212046FFF702
:1048500015FD062200E002220D212046FFF796FDFD
:10486000002384F81C313046FFF7EFFB012005B030
:10487000F0BD00BF00FEFFFF37B500240025CDE9E5
:1048800000450023FFF7ACFF03B030BDFFF7F4BFD6
:10489000FFF7A6BF0B78002063F307004B7863F3A4
:1048A0000F208B7863F31740CB7863F31F6070475A
:1048B000C1F3072311705370C1F30743C1F30761BC
:1048C0009370D170704730B585B002AD0446009545
:1048D000FFF776FF03A92046FFF741FD2946024670
:1048E0002046FFF73CFD07490346204604F0D8FD6B
:1048F000204604F019FE01462046FEF739FB05B0BC
:1049000030BD00BF30D4000073B502AC002304F802
:10491000083D06460D468DF807308DF806308DF8B7
:1049200005308DF804308DF803308DF802308DF8A5
:104930000130224605230621FFF738FC2146304688
:10494000FFF73BFEC5E9000102B070BD38B50D466A
:1049500004210446FFF705FD20F4403040EA0542FB
:1049600004212046BDE83840FFF710BD08B50421FA
:10497000FFF7F7FCC0F3014008BD07B56946FFF734
:10498000C3FFDDE9000103B05DF804FB70B5144618
:104990001D460646FFF7F1FF0019054CB6F8002149
:1049A00069412040FF25294000238018594170BDEE
:1049B00000FEFFFF00F59070D0E90001704700F5A0
:1049C0009470D0E90001704700F59870D0E90001BB
:1049D00070471FB5022203AB00920321FFF714FCBE
:1049E0009DF80D009DF80C3043EA002005B05DF8FD
:1049F00004FB1FB502230093002203AB0321FFF742
:104A000003FC9DF80D009DF80C3043EA002005B032
:104A10005DF804FB13B5082304466A460121FFF73D
:104A2000C5FB69462046FFF7C8FD02B010BD1FB5A3
:104A30000B0A8DF80D3004AB022203F8041D00921E
:104A40000321FFF74BFC05B05DF804FB1FB50B0A13
:104A50008DF80D3004AB022203F8041D00920321EF
:104A60000022FFF73BFC05B05DF804FB38B50446B7
:104A70000D461146FFF7DBFF29462046BDE83840CA
:104A8000FFF7E4BF38B50A4605460C460321FFF799
:104A90007DFC03212846FFF764FC231A5842584145
:104AA00038BD1FB50123009300220DF10F031F2114
:104AB000FFF7AAFB9DF80F0005B05DF804FB08B5F1
:104AC000FFF7EFFF00F00F0008BD08B51F21FFF74B
:104AD00048FCC0F3814008BD1FB5012300930722A5
:104AE0000DF10F031521FFF78FFB9DF80F0005B0A7
:104AF0005DF804FB08B51221FFF733FC000C08BD7C
:104B000008B51021FFF72DFC000D08BD1FB50223CD
:104B10000093042203AB1221FFF776FBBDF80C00D3
:104B200005B05DF804FB2DE9F0410446FFF7D4FF22
:104B300004F0A4F805462046FFF7DCFF04F09EF8D9
:104B400080462046FFF7E2FF04F098F8074620462B
:104B5000FFF7D6FF04F092F806462046FFF7B5FFB0
:104B600029460128284614BF194C1A4C04F0DEF8D7
:104B700041460546404604F0D9F80146284603F070
:104B8000CDFF39460546384604F0D0F801462846A0
:104B900003F0C4FF31460546304604F0C7F801462D
:104BA000284604F077F903F017FC02F0A3FF002277
:104BB000094B03F065FC064620460F4603F00CFC4B
:104BC00002460B463046394603F0A6FABDE8F081AE
:104BD000E17AF3423D8AE34200002440FFF796BFAA
:104BE00008B51221FFF7BDFB80B208BD38B50446F9
:104BF000FFF7F6FF05462046FFF77CFF04F03EF87E
:104C00000446284604F03AF80146204604F042F9EA
:104C100038BDF8B50446FFF7E3FF04F02FF8064669
:104C20002046FFF76DFF04F029F805462046FFF700
:104C30004CFF0128304614BF144C154C03F0CCFB3C
:104C400000224FF0824303F01BFC06460F46284625
:104C5000294604F06BF803F0BFFB02460B463046D2
:104C6000394603F037FD02F045FF0022094B03F0FF
:104C700007FC064620460F4603F0AEFB02460B46F5
:104C80003046394603F048FAF8BD00BFE17AF342F6
:104C90003D8AE3420000244008B51F21FFF761FB75
:104CA000C0F3845008BD08B51F21FFF75AFBC00EA2
:104CB00008BDF0B54B1E85B005460F46062B54D8EF
:104CC000DFE803F0040C0E161E532000D8238DF8E5
:104CD0000A301E238DF80B30254E1AE0D82308E049
:104CE000D8238DF80A3056238DF80B30214E10E072
:104CF000BC238DF80A3026238DF80B301E4E08E0B9
:104D0000D82300E0BC238DF80A301C4EBE238DF85A
:104D10000B3001240DF10A030B22282128460094B0
:104D2000FFF7DCFA03AA31462846FFF727FB0423E6
:104D30000093072203AB2B212846FFF7CFFA0DF192
:104D40000B030B222B2128460094FFF7C7FA1F21E3
:104D50002846FFF706FB20F0F00242EA0712284639
:104D60001F21FFF713FB204600E0002005B0F0BD37
:104D70000704000909104008080540081D04000840
:104D80002DE9FF414B1E04460F46062B74D8DFE881
:104D900003F0040E172029733200C9238DF80A305E
:104DA0001E238DF80B30364E45F640412BE0C223D2
:104DB0008DF80A3026238DF80B30324E324922E02E
:104DC000C5238DF80A3056238DF80B302F4E30490D
:104DD00019E095238DF80A3026238DF80B30294EE3
:104DE0002C4910E0C0238DF80A30BE238DF80B301B
:104DF000294E2A4907E093238DF80A30264E284988
:104E0000BE238DF80B3003AA20464FF00408FFF7AD
:104E1000B5FA012503AB0C2228212046CDF80080ED
:104E2000FFF75CFA0DF10B030B222B2120460095B6
:104E3000FFF754FA0DF10A030B222A2120460095B0
:104E4000FFF74CFA03AA31462046FFF797FA03AB67
:104E500007222B212046CDF80080FFF73FFA1F21C3
:104E60002046FFF77EFA20F00F023A4320461F212A
:104E7000FFF78CFA284600E0002004B0BDE8F0817E
:104E80000704000908054008A05C04000910400858
:104E9000C06C0800805C04001D040008E03F1E0098
:104EA000E07D1E0038B504460D46FFF769FF20B1CE
:104EB00029462046FFF7FDFE00B9002038BD38B571
:104EC0004B1E012B05460C460CD81F21FFF749FA53
:104ED00020F4402242EA844228461F21FFF756FA76
:104EE000012038BD002038BD38B54B1E012B0546CA
:104EF0000C460CD80821FFF734FA20F4403242EA7D
:104F0000044228460821FFF741FA012038BD00205D
:104F100038BD10291FB501D1872302E040290CD1EB
:104F20008D23ADF80E300223009304220DF10E0301
:104F30002721FFF7D3F9012000E0002005B05DF83C
:104F400004FB38B54B1E132B05460C460CD81F210D
:104F5000FFF707FA20F0F86242EA845228461F2140
:104F6000FFF714FA012038BD002038BD38B54B1EBC
:104F7000132B05460C460CD81F21FFF7F2F920F041
:104F8000784242EAC46228461F21FFF7FFF9012058
:104F900038BD002038BD08B50821FFF7E2F9C0F39D
:104FA000834001380C289ABF024B33F9100080204F
:104FB00008BD00BF16D40000B1F5007F38B5054626
:104FC00023D009DC80291AD0B1F5807F1AD040297E
:104FD00030D14FF4802420E0B1F5C06F18D005DC4B
:104FE000B1F5806F26D14FF4002416E0B1F5006FC3
:104FF00011D0B1F5805F1DD14FF440240DE04FF486
:10500000A0140AE04FF4101407E04FF4501404E029
:105010004FF4C01401E04FF4201408212846FFF794
:10502000A0F920F47012224328460821FFF7AEF9B8
:10503000012038BD002038BDB0F80001704707B529
:10504000022301AA1821FFF7B1F89DF805009DF889
:10505000043043EA002003B05DF804FB07B502AA60
:105060000B0A8DF8053002F8041D02231821FFF702
:1050700005F903B05DF804FB38B504460D46FFF7AB
:10508000EDFFA4F8005138BD70B504460E4690F807
:1050900039010021FBF7E0FE012194F83801FBF70C
:1050A000DBFE012194F83801FBF7A8FE0025324809
:1050B00001F0F1FA052084F81A51C4F81051C4F82F
:1050C0001451FCF7DFF82046FFF76EF92946204619
:1050D000FFF747F9294B984201D0002070BD2046C8
:1050E000FFF798FC04F58473C3E9000194F83901D3
:1050F000092804D1224B23495C6201220BE020B92C
:105100001F4B21491C60012205E00128E5D11C4B01
:105110001E495C600246FBF7D1FE04212046FFF7E2
:1051200020F9042140F000522046FFF72FF90E210C
:105130002046FFF716F90E2140F481422046FFF782
:1051400025F9731C0DD004212046FFF70AF904212C
:1051500040F03D022046FFF719F931462046FFF79F
:1051600091FC204648F24F01FFF786FF002384F8A8
:105170001C31012070BD00BFF089FF1F3001CADE65
:10518000E88EFF1F91470000A1470000B1470000D3
:105190004FF0FF31FFF778BFF0B5064685B0EFF36B
:1051A0001087FEF749FFC0B304AC802304F8013D2B
:1051B000012523461122282130460095FFF78EF85D
:1051C0000A238DF80F3012222346282130460095FD
:1051D000FFF784F80F238DF80F3012222346282181
:1051E00030460095FFF77AF8234600222A21304600
:1051F00000958DF80F50FFF771F8002223462A2101
:10520000304600958DF80F20FFF768F8009523468B
:1052100004222A213046FEF7F7FF3846FEF715FF35
:105220009DF80F0005B0F0BDF0B5064685B0EFF370
:105230001087FEF701FFC0B304AC802304F8013DE2
:10524000012523461122282130460095FFF746F814
:105250000A238DF80F30122223462821304600956C
:10526000FFF73CF80F238DF80F3012222346282138
:1052700030460095FFF732F8234600222A213046B7
:1052800000958DF80F50FFF729F8002223462A21B8
:10529000304600958DF80F20FFF720F80095234643
:1052A00003222A213046FEF7AFFF3846FEF7CDFE37
:1052B0009DF80F0005B0F0BD2DE9F041044686B021
:1052C000EFF31088FEF7B8FE50B309238DF81030C5
:1052D000022306AD00270093042204AB2D212046B3
:1052E0008DF81170FEF7FAFF032305F8093D01263A
:1052F0002B4606222D2120460096FEF7EFFF2B4677
:1053000006222D21204600968DF80F70FEF7E6FF4D
:10531000042300930A2205AB2D212046FEF774FFDB
:105320004046FEF792FE2046FFF736FF9DF8143008
:10533000C01A03F0A7FC03F04FF807A3D3E900233A
:1053400003F09EF80022064B02F0E8FE03F090FB0B
:1053500006B0BDE8F08100BF3D0AD7A3703DF23F23
:10536000000037402DE9F041044686B0EFF3108885
:10537000FEF762FE50B308238DF81030022306AD0D
:1053800000270093042204AB2D2120468DF81170D4
:10539000FEF7A4FF032305F8093D01262B4606224C
:1053A0002D2120460096FEF799FF2B4606222D213F
:1053B000204600968DF80F70FEF790FF04230093AF
:1053C0000A2205AB2D212046FEF71EFF4046FEF7C0
:1053D0003CFE2046FFF728FF03F050FC04469DF8F2
:1053E000140003F04BFC0146204603F095FB0A49EC
:1053F00003F050FD02F0F0FF05A3D3E9002302F013
:105400008DFE03F035FB06B0BDE8F081AFF3008000
:105410006666666666660A4000002D4330B585B054
:1054200001240DF10F03009406222C210546FEF7FE
:10543000EBFE9DF80F30009423438DF80F30284683
:105440000DF10F0306222C21FEF748FF0DF10F038B
:105450002846009402222C21FEF7D6FE9DF80F303C
:10546000009443F004038DF80F3002220DF10F0376
:105470002C212846FEF732FF2046FBF703FF0323CB
:1054800085F81B3105B030BDF0B5002A134E144F1E
:1054900014BF4FF060544FF06454002236F812509D
:1054A00097FBF5F5A94204D3190707D544F08064AA
:1054B00004E0551C172DF7D02A46EFE709495B0792
:1054C00051F8222007D522F47043120902F47062C9
:1054D00044F000741A4322430260F0BDCCD50000B2
:1054E000006CDC0270D5000010B50446FFF7CCFF5D
:1054F000204610BDC37A10B5E3B172B6C37ADC079B
:1055000005D5134AC3681468234083611360C37AC6
:105510009A0705D50F4A036914682340C3611360D5
:10552000C37A5B0705D50C4A4369146823400362BC
:10553000136062B60368DA688A4207D0074A1A60C5
:10554000D960074A41F0804119611A6010BD00BF5F
:1055500080E100E084E100E088E100E001403F00FC
:1055600000003F8003684FF00042DA625963DA6A54
:10557000002AFCDA986BC0B27047FFFFC37A83B190
:10558000D90742BF074B82691A60C37A9A0742BFA4
:10559000054BC2691A60C37A5B0742BF034B026ABC
:1055A0001A60704700E100E004E100E008E100E07B
:1055B00000F0FC0303F1804303F50143C0001B68C6
:1055C00000F018001BBA23FA00F000F00F0070473B
:1055D00030B572B6254C89B9016879B103790F2BC2
:1055E0000CD822881A41D20708D503F1007303F5BD
:1055F0009063B1EB431F01D162B630BD2188002317
:1056000041FA03F212F0010227D101259D402943FE
:10561000218062B6164DD9B201712C6844F00204A3
:105620002C6055F8044C03F1007344F0020445F873
:10563000044C03F590630F4C5B0182252560A17635
:10564000A1772176E17703601A605A609A60DA6088
:105650001A615A619A61DA6130BD0133102BCFD1E2
:1056600062B600220260037130BD00BF688FFF1F69
:10567000408004400080004003790F2B10D8094A75
:10568000137072B608490279012303FA02F20B88FB
:1056900023EA02030B8062B6102303710023036028
:1056A000704700BF1A800040688FFF1F70B50479F3
:1056B00002462046FFF77CFF0D7906462846FFF795
:1056C00077FF864205D215710C7113680868106067
:1056D0000B6070BDF8B50D7904462846FFF768FFEA
:1056E000167907463046FFF763FF874205D20E71F1
:1056F00015710B6810680860136025792846FFF75C
:1057000057FF0E7907463046FFF752FF874205D212
:1057100026710D712368086820600B600C792046A3
:10572000FFF746FF157906462846FFF741FF8642F8
:1057300005D20D7114710B68106808601360F8BD14
:105740002DE9F04116791D4604463046FFF730FF3B
:105750002F7980463846FFF72BFF804505D2177119
:105760002E711368286810602B600E793046FFF7A1
:105770001FFF177980463846FFF71AFF804505D28C
:105780000F7116710B681068086013602679304637
:10579000FFF70EFF0F7980463846FFF709FF804577
:1057A00005D227710E712368086820600B60167996
:1057B0003046FFF7FDFE07462879FFF7F9FE8742DE
:1057C00006D20B790E7113710B68106808601360B4
:1057D0000E793046FFF7ECFE07461079FFF7E8FE3A
:1057E000874206D2237926710B71236808682060EE
:1057F0000B6014792046FFF7DBFE06462879FFF799
:10580000D7FE864206D20B790C7113710B681068B3
:1058100008601360BDE8F08110B5044600F07AF925
:10582000627F1ABB237F012B0CD1124B196819B967
:105830006161A1611C6003E062615A68A261546108
:105840005C6011E0032B0FD10A4B996819B96161B3
:10585000A1619C6003E06261DA68A2615461DC606E
:10586000054B4FF080521A600123637700F059F91D
:1058700010BD00BF6C8FFF1F04ED00E070B50C4D34
:10588000002600F047F9AC6802466CB16369AB6072
:105890000BB19E6100E0EB60104600F042F96677C4
:1058A000A36820469847ECE700F03BF970BD00BFC5
:1058B0006C8FFF1FFFF7E2BF10B5044600F02AF916
:1058C000637F0BB3237F012B0BD1A36962690BB1FB
:1058D0005A6101E00F490A6062696AB90D4A536072
:1058E0000EE0032B0CD1A36962690BB15A6101E090
:1058F00008498A6062690AB1936101E0054AD36090
:1059000000236377012400E01C4600F00AF92046DA
:1059100010BD00BF6C8FFF1F037F012B0FD1437F92
:1059200053B1836942690BB15A6101E00E490A60C3
:10593000426992B90C4A5360002303777047032BE6
:1059400010D1437F002BF7D0836942690BB15A61B4
:1059500001E005498A6042690AB19361ECE7024AB5
:10596000D360E9E7704700BF6C8FFF1F002310B5BD
:10597000C360044600F0CEF8044B1A691C61012391
:10598000A260237500F0CDF810BD00BF6C8FFF1F23
:1059900015494B6930B513B98360C36009E00468E9
:1059A0001A68944207D20025121B8360C560D86034
:1059B0001A60486115E002681C689968121B026051
:1059C00061B10C68A2420B46F5D28160C968C16022
:1059D000D860C168A21A88601A6002E08160C36062
:1059E00098600223037530BD6C8FFF1F10B504460D
:1059F00000F090F8237DDBB2022B0ED1A3682BB10F
:105A0000E2681968DA6022680A441A60E2680AB13A
:105A1000936014E00C4A536111E0012B11D10A4A42
:105A200013699C4206D1A368136108E09A68944206
:105A300003D01346002BF9D101E0A2689A6000233D
:105A4000237500F06EF810BD6C8FFF1F037D70B5DD
:105A500005460C4616460BB1FFF7C8FF6CB1022C89
:105A60004FF000038CBF023C1C462E612C606B6023
:105A70002846BDE87040FFF779BF70BD037D70B563
:105A800004460D4616460BB1FFF7B0FF5DB1022D7F
:105A90008CBFAB1E0023266184E828002046BDE8A9
:105AA0007040FFF763BF70BD70B5154D6C6900267F
:105AB000BCB1236813B1013B236012E0A26802B1BC
:105AC000D36020696A61036826751B68224600213D
:105AD000984763681BB123602046FFF759FF6C6944
