:1000000000800020BD010000590800002508000004
:10001000250800002508000025080000250800002C
:1000200025080000250800002508000059080000E8
:10003000590800002508000051560000A158000092
:10004000590800005908000059080000590800002C
:10005000590800005908000059080000590800001C
:10006000590800005908000059080000590800000C
:1000700059080000590800005908000059080000FC
:1000800059080000590800005908000059080000EC
:1000900059080000590800005908000059080000DC
:1000A00059080000590800005908000059080000CC
:1000B00059080000590800005908000059080000BC
:1000C00059080000590800005908000059080000AC
:1000D000590800005908000059080000590800009C
:1000E000590800005908000059080000590800008C
:1000F000590800002519000059080000811F000060
:1001000059080000E52300005908000059080000C4
:10011000590800005908000059080000590800005B
:10012000590800005908000059080000590800004B
:10013000590800005908000059080000590800003B
:10014000590800005908000059080000590800002B
:10015000A1590000B5590000C9590000DD5900003F
:10016000590800000927000059080000590800003C
:1001700059080000590800005908000059080000FB
:1001800059080000590800005908000059080000EB
:1001900059080000590800005908000059080000DB
:1001A00059080000590800005908000059080000CB
:1001B0005908000059080000BD330000564B4CF2AE
:1001C000205210B51A804DF628121A8000BF00BFC9
:1001D00000F045FB514B4FF010621A60504A9A6094
:1001E000504ADA60504A136813F4807301BF4F49D4
:1001F0000B604FF4A85313604D4B4E491A7810070B
:1002000042BF1A7842F008021A704B4B2A221A7029
:100210004A4A4B4B8B4204D252F8040F43F8040B6A
:10022000F8E7484B484A0021934202D243F8041BA6
:10023000FAE7464A4648002350F8231042F82310B4
:1002400001336F2BF8D1434B434A802103F8011B44
:100250009342FBD1414B3D4A1A60414B8A221A70AE
:10026000A3F5805324225A70A0221A709A7991071C
:10027000FCD59A79D206FCD43A4A937903F00C0360
:10028000082B384BF9D103221A7140225A719A79FE
:100290009406FCD533498A79324B5006FBD5324A55
:1002A000324911600221516020221A709A7902F0BD
:1002B0000C020C2AFAD12E4B2E4A1A602E4B2F4AD2
:1002C0001A6000225A60072243F8042C2C4AC3F813
:1002D0000C2D62B600F0EBFF144B1B68DA0705D556
:1002E000284800F0CBFC284B284A1A60284B1B7882
:1002F0005B0609D5244C254B22689A4204D121483B
:1003000000F0BCFC002323600AF054FA00F0AEFABF
:1003100007F022FBFEE700BF0E20054030800440BE
:10032000823F04000100002B10D0034014D0034092
:1003300002D007401C8CFF1F00E0074010F00000B7
:100340001C87FF1F208CFF1F5896FF1F0082FF1F76
:100350000000000000E400E05FE400E008ED00E0E1
:100360000050064000400640448004400000030165
:1003700004800440C010050014E000E0FF76010096
:1003800000002020000000001CE00340A5C3945A98
:1003900000F00740FFFFFFFFFFFFFFFFFFFFFFFF32
:1003A000FFFFFFFFFFFFFFFFFFFFFFFFFFFFFFFF5D
:1003B000FFFFFFFFFFFFFFFFFFFFFFFFFFFFFFFF4D
:1003C000FFFFFFFFFFFFFFFFFFFFFFFFFFFFFFFF3D
:1003D000FFFFFFFFFFFFFFFFFFFFFFFFFFFFFFFF2D
:1003E000FFFFFFFFFFFFFFFFFFFFFFFFFFFFFFFF1D
:1003F000FFFFFFFFFFFFFFFFFFFFFFFFFFFFFFFF0D
:10040000FFFFFFFFFFFFFFFFFFFFFFFFDEF9FFFF23
:1004100010B5054C237833B9044B13B10448AFF33E
:1004200000800123237010BD208CFF1F00000000FE
:1004300014F00000084B10B51BB108490848AFF391
:1004400000800848036803B910BD074B002BFBD0A0
:10045000BDE81040184700BF00000000248CFF1FBB
:1004600014F000001C8CFF1F00000000F0B5374A9C
:10047000374B11680906FCD4196811F08001F8D1D6
:1004800072B634480378002B5DD0334B334A1F6873
:1004900004330C321B6852F80C6C52F8085C52F8AA
:1004A000044C12683B4433442B4423441344C3F3A9
:1004B0004E032B4A43F4004313602A4B1F68043356
:1004C00040321B6852F80C6C52F8085C52F8044C2D
:1004D00012683B4433442B4423441344C3F34E0378
:1004E000214A43F400431360204B02F500221F68A9
:1004F000043310321B681668556894683B440C320C
:10050000334412682B4423441344C3F34E03184A64
:1005100043F400431360174B1F68043340321B68D9
:1005200052F80C6C52F8085C52F8044C12683B44C8
:1005300033442B4423441344C3F34E030E4A43F481
:1005400000431360017062B6F0BD00BF24B00340E9
:1005500024B00B403C8CFF1F38B0034040B0034038
:100560002CB0034058B0034030B0034038B00B40CB
:100570002CB00B4058B00B4030B00B4030B5214B85
:10058000214D2248224960221A70E1225A702C78AB
:10059000204A03F58E23082C03F10C0301D101241A
:1005A00002E00A2C03D139240460132005E00C2C4E
:1005B0000CBF35243D240460122008601460164AE4
:1005C0001860537815491046154A03B101230B6092
:1005D00013606978134A144B012901D880210BE07C
:1005E000042901D8842107E0082901D8852103E0E6
:1005F000102994BF8621872111601960012303709F
:1006000030BD00BF004007400088FF1F08B0034016
:100610000CB0034008B00B403C8CFF1F20B00340DF
:1006200020B00B4024B0034024B00B400D4B5A784F
:1006300058B1AAB9012159701B7823B10A4B1A602D
:1006400003F500231A60FFF799BF4AB158701B7871
:10065000002BF8D0044B186003F500231860F2E774
:10066000704700BF3C8CFF1F24B003400C2810B41F
:1006700004D9102828BF1020102307E00A2804D826
:1006800008288CBF0A23082300E00C23DCB20A4AA6
:100690000A49201A9070087883420BD013780C70A6
:1006A0002BB1074A0023136002F50022136010BC2F
:1006B000FFF764BF10BC70473C8CFF1F0088FF1F12
:1006C00024B0034010B5144B1B7804460BB1FFF760
:1006D000CDFE012C114A02D80023136018E0042C2F
:1006E0000F4903D8042313600B6011E0082C04D8D1
:1006F000052313600B6008230AE0102C95BF062326
:1007000007231360136095BF0B600B601023202339
:10071000044A537010BD00BF3C8CFF1F24B003403F
:1007200024B00B400088FF1F28282DE9F0414CD849
:10073000274B1D5CFF2D48D0264C23780BB1FFF7CB
:1007400095FE290615D472B6234E01273560E77051
:1007500062B672B633681A0604D5204B00221B68B5
:10076000E27025E0E378002BF0D062B606F008FED8
:10077000EFE772B61A4EDFF8708005F04007FFB25F
:1007800005F03F05336817B123F0100301E043F093
:10079000100333600123C8F80050237162B672B6AB
:1007A000D8F800301B0609D50E4B00221B682271B9
:1007B00062B6A07843FA00F0BDE8F0812379002BFF
:1007C000E0D062B606F0DCFDE9E70020BDE8F0818C
:1007D000C8E000003C8CFF1F00B0034010B0034095
:1007E0000CB00B4010B00B4000B00B40094A13682E
:1007F00043F480531360084B5A78084B0AB18022A7
:1008000000E0C0221A7080F30C00054B00B2188083
:10081000704700BF2C8004403C8CFF1F21C00C405F
:1008200000C00C4008B50B4D2C462B68580301D571
:1008300001F06AFF2368590501D501F073F82368B8
:100840001A0501D501F09CFB2368DB04EDD501F00E
:10085000C9FDEAE73480044008B5FFF7E3FF024B27
:1008600010221A80704700BF0020054070470A49D7
:1008700008B50B6868B16A461844A2F580529042E8
:1008800006D309F091FF0C2303604FF0FF3008BD41
:100890000860184608BD00BF0488FF1F002070478D
:1008A0004FF0FF3070474FF400534B60002070470B
:1008B000012070474FF0FF307047FEE7FEE70078F9
:1008C000B0FA80F040097047012303707047FEE7DB
:1008D000EFF31380A8B9EFF31082A2B9EFF3058309
:1008E00023B10F2B05D9084A985C03E04FF48070C0
:1008F00000E01046EFF311832BB1984228BF184651
:1009000070474FF0FF307047F0E300E030B503462A
:100910000020B3FBF2F402FB1433092B94BF3033F5
:100920003733DBB20B5423460CB10130F1E70A1820
:1009300023465470C41AA34206DACC5C1578CD5411
:1009400002F801490133F5E7084630BD031E10B532
:100950000C4603DBBDE81040FFF7D8BF2D2001F89F
:10096000010B5842FFF7D2FF204610BD2DE9F0439E
:1009700081EAE17985B00F46A9EBE17901460646A7
:1009800015461C4609F048FE78B30021304609F0B0
:100990001BFE002814BF042003204845B4BFC0EB51
:1009A00009050025002F07DA60192023844202D0B0
:1009B00004F8013BFAE7002530464FF07E5363F31D
:1009C0001E00002109F000FE10B12D232370013418
:1009D00041234E226370E31C2270A270581920221A
:1009E00083423CD003F8012BFAE726F00048774910
:1009F000404609F011FEA8BB4046744909F0EEFDDF
:100A0000804678BB0021304609F0DEFD002814BF87
:100A1000042003204845B4BFC0EB09054546002F1C
:100A200007DA60192023844202D004F8013BFAE778
:100A300000250021304609F0C7FD10B12D23237099
:100A40000134492323704E2346226370E31CA270B5
:100A500058192022834202D003F8012BFAE7002321
:100A60000370B0E002AB01AA2946304609F08FFEC0
:100A7000814665B9019B53B990F80090544B554A93
:100A8000B9F1340F94BF9146994601230193019B1C
:100A90005B429D42BCBFDFF83C916B424846B8BF09
:100AA00001930AF029F8019B98428046C8BF00F1E3
:100AB0000108002B02D108F1010825E024DA1DB35A
:100AC0002B44984205F102081ED9A946B9F1000F3E
:100AD00007DD3046404909F0D9FB09F1FF390646E8
:100AE000F4E7002DACBF691B294602AB03AA3046D0
:100AF00009F04DFE019B039A691CD21A8A4208BF75
:100B00000133814608BF0193029808B108F101083A
:100B1000C8EB0703002B04EB080208DD1A4421464A
:100B200023442026994203D001F8016BFAE72346BB
:100B300010B12D21197001330199002909D135B166
:100B40001946302001F8020B2E2058700B462E2536
:100B500022E0FCDA002DFAD01D46302005F8020B09
:100B60002E265E702B46C91A00255E1803D503F8A1
:100B7000010B0125F9E7002DE9D00196E7E7581CA4
:100B800019F8011B1970824209D0019901390191AC
:100B900009B9981C5D7003469A42F0D800E01346EC
:100BA000002F0DDA47447F42194620207A1A1A4452
:100BB000002A02DD01F8010BF8E7002FA8BFDB19BE
:100BC00000221A70204605B0BDE8F083FFFF7F7F4A
:100BD000F3E00000F1E00000000020417047103019
:100BE000014B43F8201070470082FF1F194B03EBA5
:100BF000C000426802F14043A3F592217C2910D93C
:100C0000A3F594217C290ED9A3F596217C290CD932
:100C1000A3F598217C290AD9A3F59A237C2B08D91E
:100C200070470D4906E00D4904E00D4902E00D4909
:100C300000E00D4972B6136823F0877323F4803304
:100C400043F080731360C2F38402084B41F82230F2
:100C500062B67047F8E00000B088FF1F6088FF1F91
:100C60003088FF1F1088FF1F0888FF1FDD0B000062
:100C7000014B1868704700BF00D00340044B054982
:100C800000221A600A60044A106010221A6070473D
:100C900014D0034004D0034000D0034000280EDBF2
:100CA00003024FF48072B3F5004F06D3013A012AD4
:100CB000A3EB000101D00B46F5E71B0A10E043420D
:100CC0001B024FF48072B3F5014F06D3013A012A9B
:100CD00000EB030101D00B46F5E71B0AC3F5807357
:100CE000013A43EA0223014A136070470CD00340E3
:100CF00020B11028034628BF102300E00123034A37
:100D000092F8E00082F8E030704700BF0888FF1FCB
:100D10002DE9F041884605462C492D4E404609F004
:100D200053FC47F61223002816BF022701271E4650
:100D3000002426FA04F009F051FA4FF05E5109F050
:100D4000A5FA0146404609F053FC10B90134072CBE
:100D5000EFD126FA04F009F041FA414609F04AFBC6
:100D60004FF07C5109F088F909F06CFC4FF6FF73E5
:100D7000984228BF1846EB1E012B06D8154B164982
:100D800000221A600A60154A18E0172D0CD8144B7F
:100D9000EB4003F0010383F001023BB1114B124918
:100DA0001A600A60114A09E0202D01D0192D0BD1DB
:100DB0000F4B104900221A600A600F4A106044EA83
:100DC000C7041C60BDE8F081BDE8F081001BB7409E
:100DD000006CDC0200900340049003400890034044
:100DE0006006F00000800340048003400880034058
:100DF00000800B4004800B4008800B40212810B578
:100E000018D80D4B53F8302092F880423CB10123A2
:100E100011B182F8803010BD82F8003110BD03EBB3
:100E2000C0035B681A6811B142F0030201E022F0CE
:100E300002021A6010BD00BFF8E0000021289FBF29
:100E4000044B53F8303093F80002C0B288BF002042
:100E5000704700BFF8E00000212810B52BD8164AD3
:100E600002EBC00301295B68144601D004290FD1AD
:100E700054F83020012082F880024FF4A2721A60E8
:100E80001A6804290CBF42F0200222F0200211E06F
:100E900052F83000002280F8802211B94FF480729D
:100EA00008E0022902D140F2031203E0032908BF3F
:100EB0004FF481721A6010BDF8E00000212870B56F
:100EC0000E4659D8042A57D8DFE802F0070905036F
:100ED0000B00092306E00A2304E0082302E00C23A8
:100EE00000E00B231D04254B03EBC0035C68216865
:100EF00011F4E06101D1FFF7AFFF214B214AC3F8A4
:100F00009C21214AC3F8A021204AC3F8A421204AE9
:100F1000C3F8A8211F4AC3F8AC2104F14043A3F54C
:100F200092227C2A10D9A3F594227C2A0ED9A3F50B
:100F300096227C2A0CD9A3F598227C2A0AD9A3F5FB
:100F40009A237C2B08D970BD134B06E0134B04E0A9
:100F5000134B02E0134B00E0134B72B6226822F4ED
:100F60007022226042F08071C4F3840243F8226050
:100F700045EA0103236062B670BD00BFF8E00000DF
:100F80000082FF1FCD87FF1FA187FF1F7587FF1FEF
:100F90004987FF1F1D87FF1FB088FF1F6088FF1F45
:100FA0003088FF1F1088FF1F0888FF1F282838B5CA
:100FB00004464E4B10D193F8E0300B2B03D8C3F10D
:100FC0000C03994003E00C2B1CBF0C3B1941084655
:100FD000BDE83840FFF70ABC93F8E020012500295E
:100FE00005FA02F301DC002102E08B4204D8294615
:100FF000FFF704FF294674E00338C3B2012B01D880
:101000003B4B06E0202C01D0192C01D1394B00E0DC
:10101000394B1B6803FB0113D3401D2859D8DFE867
:1010200000F03F45392758581B21585858585858F0
:101030005858582D330F1558515858585858584B20
:101040002E4A136040F244422D4B40E02D4A13607B
:1010500040F244422C4B3AE02C4A136040F24442A6
:101060002B4B34E02B4A136040F244422A4B2EE0D3
:101070002A4A136040F24442294B28E0294A13606F
:1010800040F24442284B22E0284A136040F2444296
:10109000274B1CE0274A136040F24442264B16E0DF
:1010A000264A13604FF45172254B10E0254A136015
:1010B0004FF45172244B0AE0244A13604FF45172EA
:1010C000234B04E0234A1360234B4FF451721A6000
:1010D00038BD7F29D4BF002101212046FFF78EFEB5
:1010E00001212046BDE83840FFF7B6BE0888FF1F43
:1010F0000890034008800B400880034010800340A4
:1011000004B004401880034008B00440208003402D
:101110000CB004402880034010B0044030800340ED
:1011200010C004403880034014C004404080034095
:1011300018C00440488003401CC004401090034085
:1011400030900440189003403490044010800B40CD
:1011500048A0044018800B404CA004402DE9F04109
:1011600007460E4690460825012408EA0401384641
:10117000FFF744FE01213046FFF740FE00213046D4
:10118000FFF73CFE6400013DE4B2EED1BDE8F08122
:101190002DE9F04107460E4690460824802508EACE
:1011A00005013846FFF72AFE01213046FFF726FEEB
:1011B00000213046FFF722FE013C4FEA5505EED1F3
:1011C000BDE8F08112B91A46FFF7C8BF1A46FFF70B
:1011D000DFBF2DE9F04180460F4608260025012497
:1011E00038460121FFF70AFE4046FFF727FE00B10F
:1011F000254300213846FFF701FE6400013EE4B2BA
:10120000EED12846BDE8F0812DE9F04180460F4639
:1012100008250024802638460121FFF7EFFD4046CF
:10122000FFF70CFE00B1344300213846FFF7E6FD1E
:10123000013D4FEA5606EED12046BDE8F0810AB9DD
:10124000FFF7C7BFFFF7E0BF72B60B4B0B4A0C4965
:101250001B681268096862B6490102D5322B88BF43
:101260000132C3F5BB336020FF33B3FBF0F34FF41F
:101270007A7000FB0230704718E000E0448CFF1FDA
:1012800004ED00E038B50446FFF7DEFF054624B95B
:1012900038BD013C0AD005F57A75FFF7D5FF401B34
:1012A000B0F57A7FF5D206F06BF8F6E738BD224B41
:1012B0004FF4000210B51A604FF080721A604FF0C0
:1012C00000721A604FF080621A604FF000621A607C
:1012D0001A4B1B4A1B4C00204BF6FF7118605960DB
:1012E0002823136093601361936113629362136305
:1012F00093630922226004F5805404342060616005
:10130000A360236144F8042C04F5FE2420600E48F9
:1013100001600E490B608B600D4B1A60FFF72EF9D0
:101320003220FFF7AFFF01F0F5FC4FF4AF70BDE8DE
:101330001040FFF7A7BF00BF08E100E004800340B2
:101340000C8003400080034008800B400C800B4061
:1013500000800B4070B50E2406464C4333782BB109
:10136000013CFBD1002070BD013CFBD03378002B49
:10137000FAD0FFF769FF0546337813B1013CFBD182
:10138000F0E7FFF761FF401B70BD70B50E24064605
:101390004C4333782BB9013CFBD1002070BD013C9C
:1013A000FBD03378002BFAD1FFF74EFF0546337898
:1013B00013B9013CFBD1F0E7FFF746FF401B70BDBE
:1013C00021280DD8074B53F8300021B1114600F504
:1013D0000070FFF7BFBF114600F50070FFF7D5BFE3
:1013E00000207047F8E00000224A136843F480634D
:1013F0001360214B00221A705A709A70DA701A71B9
:101400005B792BB1152B07D140F213321B4B02E055
:101410001B4B40F213321A601A4B1B78012B05D07C
:10142000052B07D14FF45172174B02E0174B4FF4C5
:1014300051721A601F28164B98BF2020C0F3443207
:101440001A70C0F347125A700221042200F01F00E4
:1014500098729A70D9745A7588221A743C22DA707C
:101460000C4B40226FF44A711A700B444FF4005237
:101470001A60704734800440488CFF1F18C0044035
:1014800040A00440E988FF1F1CC0044044A0044061
:1014900000A006402DE400E0134B9A7802F0EC0126
:1014A00000F003020A43410748BF42F010029A705D
:1014B0000D4900F00F02042A02BF8A7942F040026F
:1014C0008A715A79C30602F0EF02074B48BF42F017
:1014D00010025A719A79810602F0EF0248BF42F079
:1014E00010029A71704700BF00A006401C4B1B6899
:1014F0005B0510B500D410BD1A4C2279194B02F0CF
:10150000FF0112B105F03CFFF7E7174A4FF4005016
:101510001060164AD1705A792AB1152A07D140F2C3
:101520000311134A02E0134A40F203111160124AF8
:10153000127802F07F02012A05D0052A07D140F275
:1015400003110E4A02E00E4A40F20311116000221C
:101550001A705A709B680BB101221A7010BD00BF3F
:1015600034800440488CFF1F84E100E000A0064066
:1015700018C0044040A00440E988FF1F1CC004407C
:1015800044A004400A4A38B50446137903F0FF0525
:10159000002BFAD101212046FFF75EFC29462046A8
:1015A000FFF72CFC034B53F83420014BDA6038BDB5
:1015B000488CFF1FF8E0000010B509B140F0800032
:1015C000144A13789842144622D0134A12685205DE
:1015D0001DD503F07F03012B04D0052B05D100227C
:1015E0000E4B01E00E4B00221A60002900F07F0232
:1015F00014BF60234423012A05D0052A07D143F4F0
:101600004073064A02E0064A43F4407313602070B8
:1016100010BD00BFE988FF1F348004401CC0044097
:1016200044A004400E4B5A79824218D00D490968F3
:10163000490513D52AB1152A05D10B4A002111609D
:1016400001E00A490A6028B1152807D140F2133198
:10165000054A02E0054A40F21331116058717047A3
:10166000488CFF1F3480044018C0044040A0044050
:1016700038B50D4B1B6813F480634FF0000410D095
:1016800021280A4D0AD80A4B012153F83030AB60AB
:10169000FFF7E2FBAB681C70012038BDAC60204650
:1016A00038BD184638BD00BF34800440488CFF1F49
:1016B000F8E000000E4B1B6813F4806316D012286C
:1016C0000C4B03D140F202310B4A04E0142809D13B
:1016D0000A4A40F2023111605A7B42F001025A7309
:1016E000012070475A7B02F0FE025A7300207047B7
:1016F0003480044000A006400CA0044014C0044004
:101700001E4B1B685A052DE9F041064633D51C4D8A
:10171000EB680BB101221A70AC78DFF86480194FC6
:101720000134402C28BF0024EA78154BA24218D17E
:10173000FFF7CEF840280FDC3B791B06F4D598F86C
:1017400003300133402B28BF0023EA18DBB2127CA0
:10175000D2B2FA71EB70E7E7FF28E5DD05F010FE85
:10176000E2E71A19F6B21674E4B201221A719C70FB
:10177000044BBC22DA70BDE8F08100BF3480044025
:10178000488CFF1F00A0064000F00F00092894BFFE
:1017900030303730FFF7B4BF234B1B685A052DE9B3
:1017A000F0413ED5214CE3680BB101221A70DFF8FD
:1017B000808006464718BE4230D2A578E3780135CE
:1017C000402D28BF00259D4208D0631916F8012B33
:1017D0001A74EDB201232371A570ECE7BC2388F8DD
:1017E0000330FFF775F8402810DC98F804301B062A
:1017F00010D5E3780133402B28BF0023E218DBB279
:10180000127CD2B288F80720E37003E0FF2801DDE4
:1018100005F0B6FDE3789D42E3D0D6E7044BBC2249
:10182000DA70BDE8F08100BF34800440488CFF1FAF
:1018300000A0064010B5034C237913B105F0A0FDBC
:10184000FAE710BD488CFF1F054B9878DA78C0B2D4
:10185000D3B298422CBF3F3303F1FF33181A7047BD
:10186000488CFF1F044B18785A78C0B2D3B2984204
:1018700038BF4030C01A7047488CFF1F10B50F4C5E
:1018800023786278D9B2D2B2914214D0531C402B43
:1018900028BF0023E21892F85000DAB26270A26802
:1018A000C0B252B18B4288BF4031CB1A1A2B04DC34
:1018B0000023137010BD4FF0FF3010BD488CFF1F88
:1018C000084A11785378DBB2994208D00133402B93
:1018D00028BF0023134493F85000C0B270474FF064
:1018E000FF307047488CFF1F0B4B1B685B0512D500
:1018F0000A4BDA7802F0CB02DA7040225A74DA78B6
:1019000042F03402DA70064B5A78D2B21A709B68F1
:101910000BB100221A7070473480044000A00640CA
:10192000488CFF1F70B53348037913F0300F2ED069
:1019300072B6837D03F0FF0523B9C3794023437456
:1019400062B624E062B62C490B784A78DBB2D2B298
:101950005C1C402C28BF00249442C67918BF0B1988
:10196000F6B21CBF83F8506023466C1E14F0FF05CE
:10197000EED1D8B20870896849B1934236BFC2F13E
:1019800040029B1A9B18272BC4BF01230B70194AD6
:10199000D078C0B206061DD513791D061AD5164992
:1019A0008D78CB78EDB2DBB2AB420BD00133402B5C
:1019B00028BF00231479CC18247CE4B2D471147DA0
:1019C000072CF1D9DBB2CB700A4B1A79140644BF4D
:1019D0007C22DA7041060BD5064B1A79520607D5E0
:1019E000054A00211171D26802B111703C22DA70EF
:1019F00070BD00BF00A00640488CFF1F38B5451ED3
:101A000015F8014F44B10A2C02D10D20FFF778FEE2
:101A10002046FFF775FEF3E738BD10B50446000910
:101A2000FFF7B2FE2046BDE81040ADE610B5044613
:101A3000000AFFF7F2FF2046BDE81040FFF7EDBFB8
:101A400010B50446000EFFF7E8FF200CFFF7E5FF96
:101A5000200AFFF7E2FF2046BDE81040FFF7DDBF98
:101A6000224A136843F400631360214B00221A706A
:101A70005A709A70DA701A711E4B1A78092A05D0BA
:101A80001A2A07D140F213311B4A02E01B4A40F2E6
:101A9000133111605B780A2B05D01F2B07D14FF44F
:101AA0005172174B02E0174B4FF451721A601F2806
:101AB000154B98BF2020C0F344321A70C0F3471270
:101AC0005A7000F01F000422022198729A70D97493
:101AD0005A7588221A743C22DA700C4B40221A7014
:101AE000A3F22B334FF400421A6070473480044055
:101AF000D88CFF1FEA88FF1F04D004400CB00440BC
:101B000000D0044010B0044000B006402FE400E0D4
:101B1000134B9A7802F0EC0100F003020A434107EC
:101B200048BF42F010029A700D4900F00F02042ADB
:101B300002BF8A7942F040028A715A79C30602F0E4
:101B4000EF02074B48BF42F010025A719A798106A2
:101B500002F0EF0248BF42F010029A71704700BFD6
:101B600000B006401C4B1B681B0510B500D410BD0F
:101B70001A4C2379194A03F0FF0113B105F000FC58
:101B8000F7E7174B4FF400401860164BD970164B0F
:101B90001978092905D01A2907D140F203101349F1
:101BA00002E0134940F2031008605B7803F07F0302
:101BB0000A2B05D01F2B07D140F203110D4B02E079
:101BC0000D4B40F20311196000231370537093689A
:101BD0000BB101221A7010BD34800440D88CFF1F55
:101BE00084E100E000B00640EA88FF1F04D0044012
:101BF0000CB0044000D0044010B004400A4A38B58C
:101C00000446137903F0FF05002BFAD10121204689
:101C1000FFF722F929462046FFF7F0F8034B53F867
:101C20003420014BDA6038BDD88CFF1FF8E000008B
:101C300010B509B140F08000144A53789842144618
:101C400022D0134A126812051DD503F07F030A2B18
:101C500004D01F2B05D100220E4B01E00E4B0022B9
:101C60001A60002900F07F0214BF602344230A2A6F
:101C700005D01F2A07D143F44073064A02E0064A02
:101C800043F440731360607010BD00BFEA88FF1F0B
:101C90003480044000D0044010B004400F4B1A7848
:101CA00082421AD00E490968090515D5092A04D0BF
:101CB0001A2A05D100210B4A01E00B4A00211160CC
:101CC000092805D01A2807D140F21331054A02E04D
:101CD000054A40F21331116018707047EA88FF1FFF
:101CE0003480044004D004400CB0044038B50D4B9F
:101CF0001B6813F400634FF0000410D021280A4D34
:101D00000AD80A4B012153F83030AB60FFF7A4F832
:101D1000AB681C70012038BDAC60204638BD184649
:101D200038BD00BF34800440D88CFF1FF8E00000AD
:101D30000B4B1B6813F4006310D01728094B09D113
:101D4000094A40F2023111605A7B42F001025A7393
:101D5000012070475A7B02F0FE025A730020704740
:101D60003480044000B0064008B004401E4B1B689D
:101D70001A052DE9F041064633D51C4DEB680BB131
:101D800001221A70AC78DFF86480194F0134282CD6
:101D900028BF0024EA78154B944218D1FEF798FD2D
:101DA00040280FDC3B791B06F4D598F8033001334B
:101DB000282B28BF0023EA18DBB2127CD2B2FA71BA
:101DC000EB70E7E7FF28E5DD05F0DAFAE2E71A193C
:101DD000F6B21674E4B201221A719C70044BBC2254
:101DE000DA70BDE8F08100BF34800440D88CFF1F5A
:101DF00000B00640234B1B681A052DE9F0413ED583
:101E0000214CE3680BB101221A70DFF8808006468E
:101E10004718BE4230D2A578E3780135282D28BF77
:101E200000259D4208D0631916F8012B1A74EDB2F3
:101E300001232371A570ECE7BC2388F80330FEF77B
:101E400047FD402810DC98F804301B0610D5E378D5
:101E50000133282B28BF0023E218DBB2127CD2B258
:101E600088F80720E37003E0FF2801DD05F088FA19
:101E7000E3789D42E3D0D6E7044BBC22DA70BDE89C
:101E8000F08100BF34800440D88CFF1F00B00640B2
:101E900010B5034C237913B105F072FAFAE710BDBF
:101EA000D88CFF1F054B9878DA78C0B2D3B298422D
:101EB0002CBF273303F1FF33181A7047D88CFF1F4C
:101EC000044B18785A78C0B2D3B2984238BF403029
:101ED000C01A7047D88CFF1F10B50F4C237862785A
:101EE000D9B2D2B2914214D0531C402B28BF002348
:101EF000E21892F83800DAB26270A268C0B252B149
:101F00008B4288BF4031CB1A1A2B04DC002313709C
:101F100010BD4FF0FF3010BDD88CFF1F084A11785C
:101F20005378DBB2994208D00133402B28BF0023FD
:101F3000134493F83800C0B270474FF0FF30704739
:101F4000D88CFF1F0B4B1B681B0512D50A4BDA7888
:101F500002F0CB02DA7040225A74DA7842F034028E
:101F6000DA70064B5A78D2B21A709B680BB1002215
:101F70001A7070473480044000B00640D88CFF1FB0
:101F800070B53348037913F0300F2ED072B6837DCD
:101F900003F0FF0523B9C3794023437462B624E0FC
:101FA00062B62C490B784A78DBB2D2B25C1C402C6A
:101FB00028BF00249442C67918BF0B19F6B21CBF83
:101FC00083F8386023466C1E14F0FF05EED1D8B2BA
:101FD0000870896849B1934236BFC2F140029B1A2A
:101FE0009B18272BC4BF01230B70194AD078C0B2AD
:101FF00006061DD513791D061AD516498D78CB789E
:10200000EDB2DBB2AB420BD00133282B28BF00234B
:102010001479CC18247CE4B2D471147D072CF1D946
:10202000DBB2CB700A4B1A79140644BF7C22DA70FB
:1020300041060BD5064B1A79520607D5054A0021F1
:102040001171D26802B111703C22DA7070BD00BF0C
:1020500000B00640D88CFF1F164A136843F4805323
:102060001360154A0023137053709370D37013716B
:10207000124A40F2133111604FF4517151601F2820
:1020800098BF20200E4AC0F344311170C0F34711AD
:1020900000F01F0051709072937013742C23D37052
:1020A000084B40226FF44B711A700B444FF400320E
:1020B0001A60704734800440508DFF1F08C00440F0
:1020C00000C0064031E400E0134B9A7802F0EC01C6
:1020D00000F003020A43410748BF42F010029A7021
:1020E0000D4900F00F02042A02BF8A7942F0400233
:1020F0008A715A79C30602F0EF02074B48BF42F0DB
:1021000010025A719A79810602F0EF0248BF42F03C
:1021100010029A71704700BF00C00640104B1B6848
:10212000DB0410B500D410BD0E4C21790D4B01F02D
:10213000FF0211B105F024F9F7E70B494FF4003025
:1021400008600A490A48CA7040F203110160416000
:102150001A705A709B680BB101221A7010BD00BF33
:1021600034800440508DFF1F84E100E000C0064031
:1021700008C004400A4A38B50446137903F0FF0545
:10218000002BFAD101212046FEF766FE29462046A3
:10219000FEF734FE034B53F83420014BDA6038BDB0
:1021A000508DFF1FF8E0000010B509B140F080002D
:1021B0000E4B1A78904217D00D4C2468E40412D5C7
:1021C00002F07F02082A02BF0A4A00241460002994
:1021D00000F07F010CBF44226022082902BF05499C
:1021E00042F440720A60187010BD00BFEC88FF1FF7
:1021F000348004400CC00440704738B50C4B1B6859
:1022000013F480534FF0000410D02128094D0AD850
:10221000094B012153F83030AB60FEF71DFEAB686F
:102220001C70012038BDAC60204638BD184638BD52
:1022300034800440508DFF1FF8E000000B4B1B68FA
:1022400013F4805310D00E28094B09D1094A40F2EB
:10225000023111605A7B42F001025A73012070472B
:102260005A7B02F0FE025A7300207047348004400B
:1022700000C0064004C004401E4B1B68DA042DE970
:10228000F041064633D51C4DEB680BB101221A70A4
:10229000AC78DFF86480194F0134282C28BF002463
:1022A000EA78154BA24218D1FEF712FB40280FDC4A
:1022B0003B791B06F4D598F803300133282B28BF4F
:1022C0000023EA18DBB2127CD2B2FA71EB70E7E7B6
:1022D000FF28E5DD05F054F8E2E71A19F6B21674A6
:1022E000E4B201221A719C70044BAC22DA70BDE892
:1022F000F08100BF34800440508DFF1F00C00640B5
:1023000038B504464518AC4204D014F8010BFFF769
:10231000B3FFF8E738BD10B5034C237913B105F0CE
:102320002FF8FAE710BD00BF508DFF1F054B9878BE
:10233000DA78C0B2D3B298422CBF273303F1FF330F
:10234000181A7047508DFF1F044B18785A78C0B286
:10235000D3B2984238BF4030C01A7047508DFF1F2B
:1023600010B50F4C23786278D9B2D2B2914214D012
:10237000531C402B28BF0023E21892F83800DAB231
:102380006270A268C0B252B18B4288BF4031CB1A92
:102390001A2B04DC0023137010BD4FF0FF3010BD6A
:1023A000508DFF1F084A11785378DBB2994208D04C
:1023B0000133402B28BF0023134493F83800C0B2E8
:1023C00070474FF0FF307047508DFF1F044B5A7815
:1023D000D2B21A709B680BB100221A70704700BF0E
:1023E000508DFF1F10B5274B1A7992061FD5264A2C
:1023F000D9791378507801333F2BC8BF002383422B
:1024000018BFD018C9B21EBF80F83810D9B21170E9
:10241000916861B11C4AD278D2B2934236BFC2F100
:1024200040029B1A9B18272BC4BF01230B70154831
:10243000C278D2B2130615D503791C0612D51249FB
:102440008C78CB78DBB29C4202D16C23C37009E05C
:102450000133282B28BF0023CC18DBB2247CE4B244
:10246000C471CB7051060BD5064B1A79520607D5AD
:10247000054A00211171D26802B111702C22DA7064
:1024800010BD00BF00C00640508DFF1F1FB572B6C3
:10249000154B70221A70154A412111700F2102F854
:1024A000011C80221A701A781206FCD5104B18688D
:1024B00062B6104B984298BF0A2301AC98BF5843AC
:1024C0000A222146FEF722FA0B4A0023E15C21B1E1
:1024D00001330A2B22F8021BF8D1084A01335B00B2
:1024E000137004B010BD00BF00000240070002409E
:1024F000080002407F969800F088FF1FEE88FF1FBB
:1025000070B50C4B0C4D1A7842F0020605EBC60470
:1025100082F00102606058781A70002814BFC82445
:10252000882480F0010044EA0141587045F83610D3
:1025300070BD00BFC88DFF1F0080FF1F431E032B0F
:1025400010B510D872B6094A02EB8302506840B148
:10255000416851600649048831F81320121B21F8A4
:10256000132062B610BD002010BD00BFC88DFF1F34
:102570004096FF1F013803280CD8074B03EB80005F
:10258000436972B600201BB11A885B681044FAE7F1
:1025900062B6704700207047C88DFF1F01380328BE
:1025A0000BD872B6064B03EB80004369002013B1D1
:1025B00001305B68FBE762B670470020704700BFE0
:1025C000C88DFF1F70B472B6194C1A4901231A192D
:1025D00012F8012C12071FD59A00164E51F83250EE
:1025E0002DB906EB431308305860134B09E042F055
:1025F000010251F832507DB906EBC2030830586031
:102600000E4B46F832300E4A92F82430013B82F8E5
:10261000243062B670BC70470133052BD7D162B647
:10262000074B002283F8242070BC00F0D3BB00BF0E
:1026300008E200000080FF1F88004000C800400042
:10264000C88DFF1F431E032B10B533D81A4A400113
:1026500040F01000104472B6184AD41894F825407F
:10266000032C0BD8DFE804F015040207052411E061
:10267000083002240EE0083004240BE09B00D01840
:1026800044690CB9416101E0C06A41601344D962F8
:102690000FE00324134410F0080F0A8883F8254044
:1026A00001F10803436014BFC823882343EA0243AF
:1026B000036062B610BD00BF0080FF1FC88DFF1F02
:1026C000431E032B30B517D80C4C400140F01000CE
:1026D000204472B60A4CE51895F8255015B108301B
:1026E000002500E001252344120442F0800283F813
:1026F00025504160026062B630BD00BF0080FF1F00
:10270000C88DFF1F00BE70472DE9F74FDFF8DC9240
:10271000B64B1D78EDB215F0040F1C461CD0B44A20
:1027200092F84430ABB192F8451001F0FF0329B1A3
:10273000013BDBB282F8453003B900BEAD4A1178E7
:1027400001F0FF0329B1013BDBB213700BB900F0BC
:10275000BDFC042389F8003005F0080303F0FF06F0
:10276000002B00F08182A44BA44E1A78D2B2130938
:102770004FEA920440F0EB8106EBC403596856F827
:102780003430C3F38303013B0C2B00F2DC81DFE820
:1027900013F099019901DA01DA01DA01DA01DA01BB
:1027A000DA01B701DA01DA01DA010D000A68904DA9
:1027B0004B68AA64EB6492B2914B46F8343040F215
:1027C00081600023012182422B653361B36169700E
:1027D0002C4617D8B2F5D06F80F02681B2F5817FF4
:1027E00000F0E18006D8802A00F0C680822A00F03E
:1027F000C88037E140F202339A4200F0E580B2F53A
:10280000A06F1BE042F22100824200F058810DD8F7
:10281000B2F5086F00F0AA80B2F5106F40F0228187
:1028200095F84A2085F844201F460AE042F221210B
:102830008A4200F00E8142F221339A4200F0168162
:1028400010E1F219136A1B0603D5506A083800F02C
:10285000C1FA0837802FF4D16A4F4FF00008A7F172
:10286000110B694A52F828004FEA880A40B14168C2
:102870000192009100F0AEFA0099019A0846F5E73E
:10288000624B42F80A004AF803005AF80B0030B1D4
:102890004268009200F09EFA009A1046F7E75C4BFF
:1028A00003F1180243F80A005A4B4AF8020023F8D1
:1028B00018003B78023B032B07D8DFE803F0020443
:1028C0000204002300E001233B7008F10108B8F185
:1028D000040F07F10107C4D100234F4FDFF820A1F7
:1028E00085F824304FF001084C4B08EB07024344B5
:1028F00012F8012C9B0012F0080F1A704FEA880B97
:1029000025D000F049FA38B106EB4813083058607A
:10291000434B46F83B3006E094F8243046F83B0041
:10292000013384F8243000F037FA4BF0010338B15A
:1029300006EBC30E0830CEF8040046F833A006E0DC
:1029400046F8330094F82430013384F824304BF0F7
:1029500002004BF0030208F101080023B8F1050F53
:1029600046F8303046F83230BED180E095F8443039
:1029700085F83C300B467DE085F83C3085F83D30ED
:1029800077E0B5F84C2002F07F02042A6AD885F877
:102990003C3085F83D309200224B9B5C9E0768D509
:1029A00085F83C1065E0B5F84C2002F07F02042A5F
:1029B00058D8B5F84A30002B54D11A499200114426
:1029C0000A7822F002020FE0B5F84C2002F07F02F4
:1029D000042A47D8B5F84A30002B43D11149920058
:1029E00011440A7842F002020A7040E08020074059
:1029F000C88DFF1FBD8EFF1F902007400080FF1F66
:102A0000C8004000ED8DFF1FCC8DFF1F1C8EFF1FE7
:102A1000DC8DFF1F4096FF1F08E2000030C8011048
:102A200088004000C0200740B5F84A20B5F84C1097
:102A3000A94B5C68B4B11888904208D15888884284
:102A400005D1120A032A0CBF23781B8913E00C332B
:102A5000EFE7A24A1168A24A1160A24A95F84A100B
:102A6000117004E0A04B0F221A7028E000231C46CE
:102A700001E002233C34B5F84E609E4228BF1E465A
:102A8000402E374628BF402720463946FFF738FDFD
:102A9000F61B3C4403D1402F11D1374603E0402EB2
:102AA000374628BF402720463946FFF729FDF61B49
:102AB0003C4401D1402F02D12C65A5F8646001226D
:102AC0008A4B3FE08A4AB2F8480042F2210398421A
:102AD00012D188480023CD5C1D540133072BFAD155
:102AE000844B1B680021862B08BF0F23084608BFB4
:102AF00082F84530FFF704FD7F4B46F8343022E082
:102B00007B4F3E6D96B1B7F86440402C254628BFF8
:102B1000402530462946FFF7F3FC601B80B2A7F83A
:102B2000640008B9402D00D170193865B7F8482005
:102B30006F4BB2F5A06F06D1002283F8492093F8BD
:102B40004A206E4B1A70694B01221A7088E02546A4
:102B500006EBC404013B616802F00802DFB2A1F198
:102B6000080002F0FF03002A43D000F033F9604B65
:102B700003EB870ED819DEF8141019B34A68CEF8A3
:102B8000142001F10802626090F82520032A10D871
:102B9000DFE802F00205080B3B44032207E03B4458
:102BA000022204E03B44052201E03B44042283F876
:102BB000252014F0080F0A8814BFC823882343EA8D
:102BC00002434BE090F82520032A09D8DFE802F001
:102BD000484802053B44002208E03B44012205E04E
:102BE00014F0080F14BF032202223B4483F825206F
:102BF00036E056F83520120C1FFA82FE21F808EC58
:102C000032B33B4A21F8063C4FEA870C41F8043CBA
:102C100002EB0C014B680BB9486001E04B6D58604A
:102C20006244DFF8CC805065354A32F8173073447F
:102C300022F8173000F0B0F810B10830606007E0FB
:102C400098F8243046F83500013388F8243007E03E
:102C50002C4A294B14F0080F08BF134646F83530AC
:102C6000082389F8003053E5E8071ED5204A1F4D98
:102C70002448114602232B7001F8686B224BA832BE
:102C800083E80300DA6098601E619E61164B0D2296
:102C90001A701E4AFF2313702370167413711C4B95
:102CA0009F221A7001232B7012E0290604D50E4BC7
:102CB0000D221A7080232370AA0705D5134A1378B2
:102CC000DBB2137002232370EB0644BF1023237082
:102CD00003B0BDE8F08F00BF0CE20000448CFF1F82
:102CE0005096FF1FBE8EFF1FC02007409420074054
:102CF000C88DFF1F4896FF1FC8004000982007405E
:102D00004096FF1F880040000080FF1F882007407A
:102D10008420074010B5FFF7B9FB00231948194676
:102D20001950C4180833882B164A6160F8D1164927
:102D30000B6843F480230B60144BC2F30721197016
:102D4000C2F30741120E19751A76114AFF23137048
:102D50000021137202F8703C0123137582F8801071
:102D600013710C4B70226FF450711A700B444FF4B6
:102D700000721A6003F1C04303F5C82310221A70D1
:102D800010BD00BF0080FF1F348004409C2007401E
:102D90008020074049E400E010B572B60B48026895
:102DA000B2FA82F10B2902DD62B6002010BD4FF0AD
:102DB0000043CB4022EA0302026062B6044C48237F
:102DC0004B43E0180022E250426010BD8C89FF1F87
:102DD000BC83FF1F0C4B4822C31AB3FBF2F30B2B2F
:102DE00011D80A4A127822B1094A12780AB1FFF7BB
:102DF000E9BB72B607494FF0004222FA03F30A68B2
:102E00001A430A6062B67047BC83FF1FEC8DFF1F38
:102E10000C8EFF1F8C89FF1F10B5104C23686BB1FF
:102E2000206843885A1C03441C7A03889A4212D3B0
:102E3000FFF7D0FF094B00221A600DE0084B1B780A
:102E400013B94FF0FF3010BD0320FFF777FB206070
:102E50000028E5D1F5E74280204610BDB08EFF1F67
:102E60000C8EFF1F10B50B4C236813B122686AB992
:102E700002E0094B1B7813B94FF0FF3010BD03205F
:102E8000FFF75CFB20600028F0D1F5E7538813447E
:102E9000187A10BDB08EFF1F0C8EFF1F044B988850
:102EA000044B1A681AB1138852889B1A1844704749
:102EB0004096FF1FB08EFF1F2DE9F84FDFF8789086
:102EC000DFF878B080460E460027CA4686B39BF8E6
:102ED00000306BB3D9F8003053B90320FFF72EFB55
:102EE000CAF8000020B3038813B9FFF773FFF4E7B3
:102EF000DAF800502B46698833F8084B641AB4425C
:102F000028BF344622461944404607F0BFFC6B8870
:102F1000A0442744361B1C442B88A4B2A3426C80D7
:102F2000D4D82846FFF756FF0023C9F80030CDE774
:102F30003846BDE8F88F00BFB08EFF1F0C8EFF1F14
:102F400010B5094B1B786BB1084C206818B1FFF71E
:102F500041FF002323600320FFF7F0FA10B1FFF7D1
:102F600039FFF8E710BD00BF0C8EFF1FB08EFF1FAA
:102F70002DE9F0472B4C2C4F012381460D46237140
:102F80000E46A046002E49D0A36813BB4AF2F92A88
:102F90003B7803F0FF020BB9227113E00420FFF726
:102FA000FDFA072807D801232371FFF7F5FEA0607B
:102FB00078B988F80400BAF1010A01D0237B2BB15B
:102FC000012323734FF0FF30BDE8F08704F0D8F9F8
:102FD000DEE7A168002323734B88C3F14002B242AD
:102FE00028BF324698180B444880B61A073309EBBD
:102FF000020AD14504D019F8012B03F8012FF8E794
:103000004B883F2B06D940230B800420FFF71AFB87
:103010000023A36005236373D146B3E726712846D6
:10302000BDE8F087B08EFF1F0C8EFF1F07B502AB07
:10303000012103F8010D1846FFF79AFF03B05DF870
:1030400004FB10B50D4C01232371A3687BB90C4B15
:103050001B7813B90020207110BD0420FFF79EFAE1
:103060000728F7D8FFF798FEA0600028F2D0A368E1
:10307000588800232371C0F1400010BDB08EFF1F9F
:103080000C8EFF1F70B50F4B1B78D3B10E4CA5688B
:10309000012626714DB100266B88667329462B8068
:1030A0000420FFF7CFFAA66009E0FFF775FE01469E
:1030B00020B104206573FFF7C5FA00E066730023B2
:1030C000237170BD0C8EFF1FB08EFF1F38B50D4CE5
:1030D000237903F0FF059BB9A16831B14B880B80C0
:1030E0000420FFF7AFFAA56038BDFFF755FE014693
:1030F00020B10420BDE83840FFF7A4BA0123637370
:1031000038BD00BFB08EFF1FC029F0B528BFC02159
:1031100072B6134A0023106093809360D3601361EA
:1031200053619361D36101278B4203D100234FF494
:1031300082740BE05C0902EB840403F01F0507FABC
:1031400005F6A5683543A5600133EDE78B4204D051
:1031500004FB030253800133F8E762B6F0BD00BF01
:10316000C08EFF1FF0B572B61D4B998803F10800A1
:1031700000EB8102064603F12005AA4202D362B6A3
:103180000020F0BD144654F8040B10B9013122465A
:10319000F3E7B0FA80F54FF00044EC4020EA040079
:1031A000106000B901311C8C99800134A7B21F84D2
:1031B00062B6921B9210C5EB42124FF482714A43E1
:1031C00002F5FB5219681C3201258D545B8C9C4220
:1031D00088BF034B01EB020088BF5F84F0BD00BFD6
:1031E000C08EFF1F10B5428872B60378012B02D93A
:1031F000013B037014E00B4B511103EB8104D243EC
:103200004FF0004002F01F0220FA02F2A0681043C3
:103210009A88A06091421A8C38BF9980013A1A842A
:1032200062B610BDC08EFF1F30B5C3687BB1187A7F
:1032300090420AD158685C7A006950F8245025B948
:1032400040F82410087801300870DB68EEE730BDE4
:10325000437A8B4288BF02694FF0000386BF52F861
:10326000210042F821301846704738B5437A8B4226
:1032700001D8002038BD036953F82140002243F8EB
:103280002120002CF5D02378012B0ED9FFF76AFFFF
:10329000054628B14FF48072211D043007F0F6FA7C
:1032A0002378013B2370284638BD204638BD037C77
:1032B00030B5002B2CD14368427A5B7A9A4227D8EA
:1032C00072B60268D3682BB9D06011E01C68A242C4
:1032D00004D00B46D9680029F8D108E05D6844683D
:1032E000A542F6D11C8903899C42F2D10FE0D86037
:1032F0000023C360937A013393720268416801230B
:1033000013728A7A1A448A7242681372037462B61C
:1033100030BD037C002B2BD04368427A5B7A9A4203
:1033200026D872B60268D36813B3984204D1C36832
:10333000D36004E0984202D0DB68002BFAD14368E6
:10334000427A1B69002143F822100268937A013BFC
:10335000937203689A7A02B91A724268937A013BAF
:10336000937243689A7A02B91A720023037462B6A0
:103370007047094B93F824205AB9084AD02111709C
:10338000A2F256324FF080410120116083F82400F0
:1033900070470020704700BFC08EFF1F5EE400E052
:1033A000044B4FF080421A60034B002283F8242024
:1033B000704700BF88E100E0C08EFF1F194A136804
:1033C00043F080732DE9F0411360174A174D1368DD
:1033D00043F001031360164A2F68946A16469CB1A5
:1033E000237A7BB12368D5F800801B682046984774
:1033F0002A68E388C8EB0202120991B29A42A180BE
:1034000088BFE1806469EAE72B68F18DDB1B1B094B
:103410008B429AB288BF064BB28588BFDA85BDE879
:10342000F08100BFFCED00E0001000E0041000E0BF
:10343000C08EFF1FFFFFFFFF72B6BFF35F8FBFF3AA
:103440004F8FBFF36F8F0120704780F31088BFF359
:103450005F8FBFF34F8FBFF36F8FBFF35F8FBFF3EC
:103460004F8FBFF36F8F704710B5064CC0F8044103
:10347000002480F81C4180F81D4180F8581180F824
:10348000592110BD0110013890F838017047002310
:10349000C0F81011C0F81421A0F818317047C0F816
:1034A0001011C0F81421A0F81831704790F81A31A3
:1034B0001BB1002380F81A31012318467047F8B574
:1034C0000446EFF31085FFF7B7FF70B394F81A01C5
:1034D00058B30BB100200CE0D4F814613688581CA6
:1034E0009BB29E4215D9D4F81061F65CCE540346C7
:1034F000F2E7D4F81461368800F1010E80B2B042D0
:1035000007D2D4F810713F5C1844801B0F547046EA
:10351000EFE7D4F814311B8813800023284684F881
:103520001A31FFF792FF0120F8BD2846FFF78DFF03
:103530000020F8BD0023FFF7C2BF90F81B017047C1
:1035400008B5024801F0DCFE08BD00BFA089FF1FDE
:10355000064B1B684FF0004241F08051DA6259631C
:10356000DA6A002AFCDA9B6B704700BFA089FF1F54
:1035700070B50D4616460C46631B9E4205DD14F8D9
:10358000011B024801F0BCFEF6E770BDA089FF1FD9
:1035900070B50D4616460C46631B9E4206DD0021A3
:1035A000034801F0ADFE04F8010BF5E770BD00BF64
:1035B000A089FF1F2DE9F041044616461F4601F081
:1035C0003F08EFF31085FFF737FFD0B1D4F80411AF
:1035D0000E4801F05DFE002194F85801FDF70EFC45
:1035E00041460A4801F08CFE3A4631462046FFF734
:1035F000CFFF94F858010121FDF700FC034801F0CA
:103600008BFE2846BDE8F0411FE700BFA089FF1FE1
:103610002DE9F04701F03F017F2A04469846BDF8A6
:10362000209041F0400626D8D5B2EFF31087FFF77F
:1036300003FFF0B1D4F80411274801F029FE00215E
:1036400094F85801FDF7DAFB3146234801F058FEA3
:103650002946214801F054FE4A4641462046FFF7DC
:1036600097FF94F858010121FDF7C8FB1A4801F0B3
:1036700053FE38462DE062F07F07FFB2C2F3C71554
:10368000EFF3108AFFF7D8FE10B3D4F804111248F4
:1036900001F0FEFD002194F85801FDF7AFFB314623
:1036A0000D4801F02DFE39460B4801F029FE294650
:1036B000094801F025FE4A4641462046FFF768FFCB
:1036C00094F858010121FDF799FB034801F024FE0D
:1036D0005046BDE8F047B8E6A089FF1F01F03F0162
:1036E0002DE9F04104461746984641F08005EFF376
:1036F0001086FFF7A1FED0B1D4F804110E4801F0F6
:10370000C7FD002194F85801FDF778FB29460A48C7
:1037100001F0F6FD424639462046FFF729FF94F8AE
:1037200058010121FDF76AFB034801F0F5FD304621
:10373000BDE8F04189E600BFA089FF1F2DE9F843ED
:103740007F2A04461F46BDF8208041F0C00928D8D2
:10375000D5B2EFF31086FFF76FFEF0B1D4F8041185
:10376000114801F095FD002194F85801FDF746FB42
:1037700049460D4801F0C4FD29460B4801F0C0FD43
:10378000424639462046FFF7F3FE94F858010121DE
:10379000FDF734FB044801F0BFFD3046BDE8F843B7
:1037A00053E6BDE8F88300BFA089FF1F48780B7877
:1037B00043EA002070470B0A537011707047086885
:1037C000704713B5042304460DEB0302FFF7F2FE26
:1037D00001A92046FFF7F3FF02B010BD0B0ED37016
:1037E0000B0C93700B0A53701170704737B50D4670
:1037F000114601AAFFF7F2FF04230DEB030229464D
:10380000FFF76CFF03B030BD2DE9FF4104460122F4
:103810005A49002302A801F035FD029BC4F8043187
:103820006420FDF72FFD36212046FFF7CAFF05462D
:1038300020F0030242F001023621204625F07045B7
:10384000FFF7D4FF25F003050120FDF71BFD45F030
:10385000010236212046FFF7C9FF0120FDF712FDC6
:1038600045F0704236212046FFF7C0FF0520FDF7E6
:1038700009FDEFF31088FFF7DFFD002868D0D4F8CA
:1038800004113F4801F004FD94F858010021FDF7B0
:10389000B5FA002503230422012602A92046F627B3
:1038A0008DF80B308DF808708DF809508DF80A608E
:1038B000FFF75EFE314694F85801FDF79FFA304855
:1038C00001F02AFDD4F804112D4801F0E1FC29464D
:1038D00094F85801FDF792FAED238DF8083006238D
:1038E00004228DF8093002A9802320468DF80B3080
:1038F0008DF80A50FFF73CFE314694F85801FDF769
:103900007DFA1F4801F008FD4FF4A053013BFDD1A3
:103910001B48D4F8041101F0BBFC294694F8580167
:10392000FDF76CFA0223042202A920468DF80B3021
:103930008DF808708DF809508DF80A50FFF718FEC1
:1039400094F858013146FDF759FA0D4801F0E4FCAE
:103950004046FFF77AFD01220A49002301A801F041
:1039600091FC019BC4F804310120FDF78BFC00237E
:1039700084F81B3104B0BDE8F08100BF20A107002E
:10398000A089FF1F002D310106220D21FFF72EBF58
:1039900010B54FF4807204460D21FFF727FF022374
:1039A00084F81B3110BD38B504460D46FFF7F0FF13
:1039B000A4F8185138BDC0F814210022C0F8101125
:1039C000A0F81821FFF7E4BF38B504461D460023D0
:1039D000C0F81011C0F81421A0F81831FFF7D8FF73
:1039E000A4F8185138BD10B5402204460D21FFF748
:1039F000FDFE002384F81B3110BD08B500220B79B1
:103A0000FFF7DDFE42EA00021046194608BD0099A4
:103A10000B71130ECB70130C8B70130A4B700A7062
:103A2000704738B50C4604310546FFF7C8FE2146FD
:103A3000034628460022FFF7C2FE42EA0002104673
:103A4000194638BD0099180EC871180C88710B7191
:103A5000180A130ECB70130C8B70130A48714B703D
:103A60000A707047F0B5044685B015461F46EFF35F
:103A70001086FFF7E1FCC0B3012384F81B31204618
:103A800013460A460921FFF729FE08212046FFF7C1
:103A900098FE20F47F7222F0030202352A430821A7
:103AA0002046FFF7A3FEC7B1DDE90A23B4F8000101
:103AB0000021121A104863EB010302ADFF210240FE
:103AC0000B4020460095FFF7BDFF2A4605230A213B
:103AD0002046FFF703FE062200E002220D212046C9
:103AE000FFF784FE002384F838313046FFF7ADFC41
:103AF000012005B0F0BD00BF00FEFFFF37B5002478
:103B00000025CDE900450023FFF7ACFF03B030BD31
:103B1000FFF7F4BFFFF7A6BF0B78002063F30700A1
:103B20004B7863F30F208B7863F31740CB7863F304
:103B30001F607047C1F3072311705370C1F307432F
:103B4000C1F307619370D170704730B585B002AD95
:103B500004460095FFF776FF03A92046FFF72FFEE6
:103B6000294602462046FFF72AFE0549034620461D
:103B700006F07EFF2146034801F026FB05B030BD6C
:103B800087E20000D889FF1F73B502AC002304F858
:103B9000083D06460D468DF807308DF806308DF845
:103BA00005308DF804308DF803308DF802308DF833
:103BB0000130224605230621FFF7FCFC2146304652
:103BC000FFF72FFFC5E9000102B070BD2DE9F743F3
:103BD00000F5987704463946FFF7D6FF0F212046B7
:103BE000FFF7EFFDC207064640F1E28010F0806566
:103BF00009D004F594712046FFF7C6FF012384F82D
:103C00001D314FF08065F30512D5EFF31081FFF7FA
:103C100013FC50B1D7E9002304F59070C0E90023EC
:103C2000012384F81C3145F480750846FFF70DFC2C
:103C3000B70440F18F800023700484F81B3140F1F9
:103C40008380D4F81031002B7CD010212046FFF760
:103C5000B8FDC0F30900D4F81421831E9BB2138071
:103C6000B4F8182122B1D4F81011D21A0A4401E094
:103C7000D4F8102111212046FFF79CFC710561D575
:103C800002AF002307F8083D8DF807303A468DF85B
:103C900006308DF805308DF804308DF803308DF83E
:103CA00002308DF80130152105232046FFF782FCF4
:103CB00039462046FFF7B5FE04F5A473C3E90001B9
:103CC0003A46032320461421FFF774FC9DF8022096
:103CD0009DF801309DF8000012F0040F19D0D24376
:103CE00002F00701DA43D3B2C0438DF80130C0B20D
:103CF00003EB01238DF8000000EB03208DF8021088
:103D000005F008FE00222E4B05F0B8FC01F1004141
:103D100005E003EB022300EB032005F0FBFD26A3E7
:103D2000D3E9002305F05CFE264B002205F082FF5C
:103D300004F5A8770123C7E9000184F81A310023AC
:103D400084F81C3145F48045320448BF45F40045F1
:103D500045F40055330626D502AE002306F8083D8B
:103D600084F81B318DF807308DF806308DF805305A
:103D70008DF804308DF803308DF802308DF8013065
:103D80003246052317212046FFF714FC3146204612
:103D9000FFF747FE04F5A073C3E90001012384F88F
:103DA000383145F080052A460F212046FFF71EFDD9
:103DB00003B0BDE8F08300BF0000000080842E4106
:103DC0000000F03F00007F41024B586A08B1FFF746
:103DD000FDBE7047F88EFF1F024B186808B1FFF751
:103DE000F5BE7047F88EFF1F024B586808B1FFF709
:103DF000EDBE7047F88EFF1F38B50D46042104460E
:103E0000FFF7DFFC20F4403040EA05420421204661
:103E1000BDE83840FFF7EABC08B50421FFF7D1FC44
:103E2000C0F3014008BD07B56946FFF7ADFEDDE907
:103E3000000103B05DF804FB70B514461D4606464C
:103E4000FFF7F1FF0019054CB6F800216941204049
:103E5000FF25294000238018594170BD00FEFFFF57
:103E600000F59070D0E90001704700F59470D0E93A
:103E70000001704790F81C0170472DE9F8430E4689
:103E80008046FFF7D0FF044630460D4606F0AAF9FB
:103E900005F052FD14A3D3E9002305F0A1FD14A3FE
:103EA000D3E9002305F0C6FE06F092F804F072FF95
:103EB00006F002FC4FF0200906460F464046FFF789
:103EC000B2FF001B61EB0501B94208BFB04298F890
:103ED0001C0104D218B94B46013BFDD1EEE7BDE809
:103EE000F88300BFAFF300808DEDB5A0F7C6B03EFC
:103EF000F2E8C0581535B13D00F5A070D0E90001D9
:103F0000704700F5A470D0E90001704700F5A87073
:103F1000D0E9000170471FB503230093282202ABAC
:103F20002721FFF775FB9DF90A009DF9093003EB86
:103F300000239DF9080000EB032005F0EBFC04A32F
:103F4000D3E9002305F04CFD05B05DF804FB00BF8C
:103F5000255179854F844EBF1FB5022203AB0092D5
:103F60000321FFF755FB9DF80D009DF80C3043EA47
:103F7000002005B05DF804FB1FB50223009300226A
:103F800003AB0321FFF744FB9DF80D009DF80C30B7
:103F900043EA002005B05DF804FB13B5082304468E
:103FA0006A460121FFF706FB69462046FFF739FD07
:103FB00002B010BD1FB50B0A8DF80D3004AB022204
:103FC00003F8041D00920321FFF7B8FB05B05DF86C
:103FD00004FB1FB50B0A8DF80D3004AB022203F869
:103FE000041D009203210022FFF7A8FB05B05DF835
:103FF00004FB38B504460D461146FFF7DBFF2946A2
:104000002046BDE83840FFF7E4BF38B50A4605460C
:104010000C460321FFF7EAFB03212846FFF7D1FBFB
:10402000231A5842584138BD1FB50123009300227E
:104030000DF10F031F21FFF7EBFA9DF80F0005B0FC
:104040005DF804FB08B5FFF7EFFF00F00F0008BDB7
:1040500008B51F21FFF7B5FBC0F3814001280CBF55
:104060001020402008BD08B50821FFF7AAFBC0F3C7
:10407000014001280CBF1020402008BD1FB50223BD
:104080000093052203AB1521FFF7C2FA9DF80D003E
:104090009DF80C3043EA002005B05DF804FB1FB525
:1040A00004230093052203AB1521FFF7B1FA9DF815
:1040B0000F009DF80E3043EA002005B05DF804FBC8
:1040C0002DE9F041ADF5806D561A0C46362180463B
:1040D0001F46DDF81854FFF774FB40F4004242F02D
:1040E000400236214046FFF781FBB30001339BB20B
:1040F000A20092B20093252102AB4046FFF788FA56
:1041000002AB0022B2420EDA9878597841EA0021D7
:1041100027F812101879D97841EA002125F81210F1
:1041200004330132EEE70DF5806DBDE8F08108B58E
:104130001221FFF746FB000C08BD1FB502230093B8
:10414000042203AB1221FFF763FABDF80C0005B09F
:104150005DF804FB08B51021FFF733FB000D08BD27
:104160002DE9F0410446FFF79AFF06F037F80546BF
:104170002046FFF7DCFF06F031F880462046FFF7C7
:10418000DCFF06F02BF807462046FFF7E3FF06F0BA
:1041900025F806462046FFF75BFF294610282846EB
:1041A00014BF1A4C1A4C06F071F8414605464046B9
:1041B00006F06CF80146284605F060FF39460546D2
:1041C000384606F063F80146284605F057FF3146A9
:1041D0000546304606F05AF80146284606F00AF928
:1041E00005F0AAFB04F01CFE00220A4B05F0F8FBC8
:1041F000064620460F4605F09FFB02460B4630461A
:10420000394605F039FABDE8F08100BFE17AF342A2
:104210003D8AE342000024401FB50223009306229A
:1042200003AB1221FFF7F4F99DF80D009DF80C3057
:1042300043EA002005B05DF804FB1FB5022300939C
:10424000002203AB1221FFF7E3F99DF80D009DF862
:104250000C3043EA002005B05DF804FB38B5044695
:10426000FFF7EBFF05462046FFF761FF05F0B6FFBD
:104270000446284605F0B2FF0146204606F0BAF88B
:1042800038BDF8B50446FFF7C7FF05F0A7FF06469F
:104290002046FFF75FFF05F0A1FF05462046FFF728
:1042A000D7FE1028304614BF144C154C05F044FBC3
:1042B00000224FF0824305F093FB06460F46284646
:1042C000294605F0E3FF05F037FB02460B46304672
:1042D000394605F0AFFC04F0A3FD0022094B05F0C0
:1042E0007FFB064620460F4605F026FB02460B469E
:1042F0003046394605F0C0F9F8BD00BFE17AF34217
:104300003D8AE3420000244008B51F21FFF759FA17
:10431000C0F3845008BD08B51F21FFF752FAC00E44
:1043200008BD08B50821FFF74CFAC0F34130032857
:104330001ABF024B33F91000002008BD60E20000F4
:1043400038B50D4604210446FFF73BFA20F48000FF
:1043500040EA855204212046FFF748FA012038BD83
:1043600008B51E21FFF72DFAC0F3074008BD08B5B8
:104370001E21FFF726FAC0F3072008BD08B5042167
:10438000FFF71FFAC0F3804080F0010008BD2DE95F
:10439000F84305460C461646FFF7F0FF48B128469D
:1043A000FFF7BFFF41F69023984202D10020BDE8FD
:1043B000F8834FF0030894FBF8F303EB43039C42AC
:1043C000F4D1E31C152BF1D83146304605F056FEEA
:1043D000814604F0DFFC01460746484605F04CFEE6
:1043E000002106F0E7F80028E0D00021304606F072
:1043F000EBF80028DAD11049304606F003F900281E
:10440000D4D1384606F01EF9C4F1120494FBF8F436
:104410006401E4B22043C4B21E212846FFF7D1F95B
:1044200020F47F0242EA044228461E21FFF7DEF90B
:104430000120BDE8F88300BF000078412DE9F84372
:1044400005460C461646FFF799FF48B12846FFF788
:1044500068FF41F69023984202D10020BDE8F8831E
:104460004FF0030894FBF8F303EB43039C42F4D1B1
:10447000E31C152BF1D83146304605F0FFFD81468F
:1044800004F088FC01460746484605F0F5FD00218A
:1044900006F090F80028E0D00021304606F094F8AD
:1044A0000028DAD10F49304606F0ACF80028D4D104
:1044B000384606F0C7F8C4F1120494FBF8F464011E
:1044C000E4B22043C4B21E212846FFF77AF920F453
:1044D0007F4242EA042228461E21FFF787F9012085
:1044E000BDE8F8830000784170B504460D461646D5
:1044F000FFF74DFF28B1324629462046FFF79EFFC1
:1045000000B9002070BD38B50C4604210546FFF700
:1045100058F984F0010420F4802242EA84422846BB
:104520000421FFF763F9012038BDF0B54B1E85B0BB
:1045300004460E46062B29D8DFE803F0040C0E16BD
:104540001E282000D8238DF80A301E238DF80B304A
:10455000254D1DE0D82308E0D8238DF80A305623D6
:104560008DF80B30214D13E0BC238DF80A30262343
:104570008DF80B301E4D0BE0D82300E0BC238DF8E6
:104580000A30BE238DF80B301A4D01E0002029E0DF
:1045900001270DF10A030B22282120460097FFF77F
:1045A000CDF803AA29462046FFF718F90423009303
:1045B000072203AB2B212046FFF7C0F80B220DF199
:1045C0000B032B2120460097FFF7B8F81F21204648
:1045D000FFF7F7F820F0F00242EA061220461F210A
:1045E000FFF704F905B0F0BD070400090910400801
:1045F000080540081D0400082DE9FF414B1E044634
:104600000F46062B74D8DFE803F0040E1720297339
:104610003200C9238DF80A301E238DF80B30364E38
:1046200045F640412BE0C2238DF80A3026238DF851
:104630000B30324E324922E0C5238DF80A30562322
:104640008DF80B302F4E304919E095238DF80A3044
:1046500026238DF80B30294E2C4910E0C0238DF80D
:104660000A30BE238DF80B30294E2A4907E09323E8
:104670008DF80A30264E2849BE238DF80B3003AA48
:1046800020464FF00408FFF7A9F8012503AB0C22E0
:1046900028212046CDF80080FFF750F80DF10B03DC
:1046A0000B222B2120460095FFF748F80DF10A0355
:1046B0000B222A2120460095FFF740F803AA314635
:1046C0002046FFF78BF803AB07222B212046CDF8BD
:1046D0000080FFF733F81F212046FFF772F820F023
:1046E0000F023A4320461F21FFF780F8284600E0DA
:1046F000002004B0BDE8F081070400090805400867
:10470000A05C040009104008C06C0800805C040034
:104710001D040008E03F1E00E07D1E0038B5044681
:104720000D46FFF769FF20B129462046FFF7FDFE41
:1047300000B9002038BD30B5102985B005460C46BB
:1047400001D0402924D11F212846FFF73AF8102C28
:104750000CBF4FF480224FF4002220F4402002438B
:104760001F212846FFF742F8102C01D1872302E0D1
:10477000402C02D18D23ADF80E3002230093284641
:104780000DF10E0304222721FEF7D8FF012000E0DF
:10479000002005B030BD102938B505460C4601D0C3
:1047A000402912D108212846FFF70BF8102C0CBF26
:1047B0004FF480324FF4003220F44030024308219D
:1047C0002846FFF713F8012038BD002038BD38B562
:1047D0004B1E132B05460C460CD81F21FEF7F1FF8C
:1047E00020F0F86242EA845228461F21FEF7FEFFBD
:1047F000012038BD002038BD1FB50B0A8DF80D30E3
:1048000004AB022203F8041D009227212022FEF7A8
:1048100095FF05B05DF804FB1FB50223009310223D
:1048200003AB2F21FEF7F4FE9DF80D009DF80C3030
:1048300043EA002005B05DF804FB7FB501240E4675
:104840000DF10F03009400222F210546FEF7E0FE34
:104850009DF80F10009421F0010131438DF80F10E5
:104860000DF10F0300222F212846FEF767FF04B049
:1048700070BD1FB502230093202203AB2721FEF752
:10488000C7FE9DF80D009DF80C3043EA002005B0EE
:104890005DF804FB38B54B1E132B05460C460CD8AF
:1048A0001F21FEF78EFF20F0784242EAC4622846BC
:1048B0001F21FEF79BFF012038BD002038BD08B541
:1048C0000821FEF77EFFC0F3834001380C289DBF0E
:1048D000034B03EB4000B0F90600802008BD00BF89
:1048E00060E200007FB540F25233994205460C4623
:1048F0000CD041F69023994206D06E2931D1012186
:10490000FFF71EFD002602E0022600E00126082136
:104910002846FEF756FF20F4C04242EA46320821FC
:104920002846FEF763FF2846FFF7C9FFB0F5806F02
:1049300003DB6E2C0AD1642306E0402806D141F641
:1049400064139C4202D11023ADF80E300223009371
:1049500028460DF10E0326222721FEF7EFFE012047
:1049600000E0002004B070BD30B585B005460C46AF
:10497000FFF76EFB102810D1102C0AD003DC082C96
:1049800029D1164919E0202C05D0402C23D11449F7
:1049900013E0144911E014490FE0102C0AD003DC95
:1049A000082C18D1114908E0202C05D0402C12D138
:1049B0000F4902E00F4900E00F4903AA2846FEF71D
:1049C0000DFF04230093284603AB08222721FEF79E
:1049D000B5FE012000E0002005B030BD2D001A31E9
:1049E0001D011A3752001A339A001A356B003B31F9
:1049F00096023B37BE003B335E013B351FB50423B7
:104A000008220093272103ABFEF702FE9DF80F302A
:104A100003F00F03013B062B9BBF044A9B180020A9
:104A200093F9200005B05DF804FB00BF60E20000D0
:104A3000B1F5007F7FB505460C4630D007DC8029F4
:104A400036D0B1F5807F15D040294BD115E0B1F5B6
:104A5000C06F27D005DCB1F5806F43D14FF400263D
:104A60002BE0B1F5006F20D0B1F5805F3AD14FF463
:104A7000402622E04FF410161FE0FFF752FC41F6EB
:104A80009023984217D104AB642223F8022D02220E
:104A90000092272126222846FEF750FE0BE04FF415
:104AA00050160AE04FF4C01607E04FF4201604E059
:104AB0004FF4A01601E04FF4802608212846FEF7A7
:104AC00080FE20F47012324308212846FEF78EFE45
:104AD000B4F5806F08DB2846FFF723FC6E281CD155
:104AE00064230BE0002039E0402C16D12846FFF764
:104AF00018FC41F66413984226D11023ADF80E300D
:104B00000223009326220DF10E0327212846FEF7EB
:104B100015FE402C0AD1102309E00223009326221F
:104B20000DF10E0327212846FEF708FE2823ADF8D5
:104B30000E300223009328460DF10E032622272172
:104B4000FEF7FCFD012009E00223009326220DF16F
:104B50000E0327212846FEF7F1FDDCE704B070BD07
:104B600038B52D4C2D490546204600F03BFB284624
:104B7000FFF7A5FE0146204600F04AFB28492046E3
:104B800000F030FB2846FFF7BFFB0146204600F04F
:104B900033FB2449204600F025FB2846FFF7BBFBEA
:104BA0000146204600F028FB1F49204600F01AFB72
:104BB0002846FFF747FA0146204600F01DFB1B4937
:104BC000204600F00FFB2846FFF74DFA014620462D
:104BD00000F01EFB1649204600F004FB2846FFF7B4
:104BE00037FA0146204600F013FB1249204600F038
:104BF000F9FA2846FFF795FB0146204600F008FB2E
:104C00000D49204600F0EEFA2846FFF7F7FE014670
:104C1000204600F0FDFA38BDD889FF1F92E200005F
:104C2000A3E20000B5E20000C7E20000D0E200000D
:104C3000D8E20000DFE20000E8E20000B0F8000186
:104C4000704707B5022301AA1821FEF7B3FC9DF8AF
:104C500005009DF8043043EA002003B05DF804FB32
:104C600007B502AA0B0A8DF8053002F8041D0223CD
:104C70001821FEF733FD03B05DF804FB38B5044698
:104C80000D46FFF7EDFFA4F8005138BD70B504469E
:104C90000E4690F859010021FCF7DEF8012194F846
:104CA0005801FCF7D9F8012194F85801FCF7A6F84F
:104CB0000025324801F007F8052084F81A51C4F89D
:104CC0001051C4F81451FCF7DDFA2046FEF79CFDA4
:104CD00029462046FEF775FD294B984201D0002059
:104CE00070BD2046FFF759F904F58473C3E900014C
:104CF00094F85901092804D1224B23495C6201220E
:104D00000BE020B91F4B21491C60012205E001285E
:104D1000E5D11C4B1E495C600246FCF7CFF804212C
:104D20002046FEF74EFD042140F000522046FEF7DB
:104D30005DFD0E212046FEF744FD0E2140F4814228
:104D40002046FEF753FD731C0DD004212046FEF7CC
:104D500038FD042140F03D022046FEF747FD314674
:104D60002046FFF752F9204648F24F01FFF786FF31
:104D7000002384F83831012070BD00BFA089FF1FD7
:104D80003001CADEF88EFF1FC93D0000D93D00008A
:104D9000E93D00004FF0FF31FFF778BF1FB5022358
:104DA00000932C2203AB2721FEF732FC9DF80D0067
:104DB0009DF80C3043EA002005B05DF804FBF0B527
:104DC000064685B0EFF31087FEF736FBC0B304ACA0
:104DD000802304F8013D0125234611222821304675
:104DE0000095FEF7ABFC0A238DF80F301222234604
:104DF000282130460095FEF7A1FC0F238DF80F30D7
:104E000012222346282130460095FEF797FC2346C0
:104E100000222A21304600958DF80F50FEF78EFCB7
:104E2000002223462A21304600958DF80F20FEF7F8
:104E300085FC0095234604222A213046FEF7E8FB34
:104E40003846FEF702FB9DF80F0005B0F0BDF0B547
:104E5000064685B0EFF31087FEF7EEFAC0B304AC58
:104E6000802304F8013D01252346112228213046E4
:104E70000095FEF763FC0A238DF80F3012222346BB
:104E8000282130460095FEF759FC0F238DF80F308E
:104E900012222346282130460095FEF74FFC234678
:104EA00000222A21304600958DF80F50FEF746FC6F
:104EB000002223462A21304600958DF80F20FEF768
:104EC0003DFC0095234603222A213046FEF7A0FB35
:104ED0003846FEF7BAFA9DF80F0005B0F0BD2DE98F
:104EE000F041044686B0EFF31088FEF7A5FA50B300
:104EF00009238DF81030022306AD00270093042209
:104F000004AB2D2120468DF81170FEF717FC03230A
:104F100005F8093D01262B4606222D212046009644
:104F2000FEF70CFC2B4606222D21204600968DF81C
:104F30000F70FEF703FC042300930A2205AB2D211A
:104F40002046FEF765FB4046FEF77FFA2046FFF756
:104F500036FF9DF81430C01A05F044F904F0ECFC5B
:104F600007A3D3E9002304F03BFD0022064B04F025
:104F700085FB05F02DF806B0BDE8F081AFF30080A9
:104F80003D0AD7A3703DF23F000037402DE9F041C4
:104F9000044686B0EFF31088FEF74EFA50B30823AC
:104FA0008DF81030022306AD00270093042204ABD5
:104FB0002D2120468DF81170FEF7C0FB032305F864
:104FC000093D01262B4606222D2120460096FEF79C
:104FD000B5FB2B4606222D21204600968DF80F703A
:104FE000FEF7ACFB042300930A2205AB2D212046DB
:104FF000FEF70EFB4046FEF728FA2046FFF727FF94
:1050000005F0ECF804469DF8140005F0E7F80146B9
:10501000204605F031F80A4905F0ECF904F08CFC63
:1050200005A3D3E9002304F029FB04F0D1FF06B067
:10503000BDE8F081AFF300806666666666660A408A
:1050400000002D4330B585B0022403AB009400224C
:105050002C210546FEF7DCFA9DF80D30009423F074
:10506000010343F0400328468DF80D30002203ABC6
:105070002C21FEF763FB05B030BD1FB50223009362
:10508000042203AB3621FEF7C3FA9DF80D00C0F3EE
:10509000C00005B05DF804FB30B585B00125009572
:1050A0000DF10B0306222C210446FEF7B1FA9DF800
:1050B0000B30009543F004038DF80B3020460DF1C2
:1050C0000B03022506222C21FEF738FB03AB2046FA
:1050D000009504223621FEF79BFA9DF80D300095CD
:1050E00043F008038DF80D30042203AB362120462F
:1050F000FEF724FB05B030BD30B585B001240DF1BD
:105100000F03009402222C210546FEF781FA9DF838
:105110000F30009443F004038DF80F3028460DF152
:105120000F0302222C21FEF709FB0DF10F03284685
:10513000009406222C21FEF76BFA9DF80F300094A4
:1051400043F005038DF80F3006220DF10F032C21DB
:105150002846FEF7F3FA05B030BD30B585B001241E
:105160000DF10F03009406222C210546FEF750FA9C
:105170009DF80F30009423438DF80F3028460DF131
:105180000F0306222C21FEF7D9FA0DF10F03284652
:10519000009402222C21FEF73BFA9DF80F30009478
:1051A00043F004038DF80F3002220DF10F032C2180
:1051B0002846FEF7C3FA2046FCF764F8032385F877
:1051C0001B3105B030BD00BF70B5044608460D4622
:1051D00005F092FC23680246294620465B68BDE83C
:1051E0007040184738B50546FFF7EEFF04462846DD
:1051F00000F03BFC204438BD38B50A2200230546A8
:1052000000F063FC0446284600F02FFC204438BD23
:1052100038B5054600F094FC0446284600F025FC0D
:10522000204438BDF0B5002A134E144F14BF4FF080
:1052300060544FF06454002236F8125097FBF5F595
:10524000A94204D3190707D544F0806404E0551C33
:10525000172DF7D02A46EFE709495B0751F82220BE
:1052600007D522F47043120902F4706244F000740E
:105270001A4322430260F0BDF0E30000006CDC0240
:1052800094E3000010B50446FFF7CCFF204610BDA4
:10529000C37A10B5E3B172B6C37ADC0705D5134AF9
:1052A000C3681468234083611360C37A9A0705D5E5
:1052B0000F4A036914682340C3611360C37A5B0714
:1052C00005D50C4A4369146823400362136062B633
:1052D0000368DA688A4207D0074A1A60D960074A29
:1052E00041F0804119611A6010BD00BF80E100E00B
:1052F00084E100E088E100E001403F0000003F80E1
:1053000003684FF00042DA625963DA6A002AFCDA75
:10531000986BC0B27047FFFFC37A83B1D90742BF11
:10532000074B82691A60C37A9A0742BF054BC2696C
:105330001A60C37A5B0742BF034B026A1A60704768
:1053400000E100E004E100E008E100E000F0FC031F
:1053500003F1804303F50143C0001B6800F018000F
:105360001BBA23FA00F000F00F00704730B572B698
:10537000254C89B9016879B103790F2B0CD82288A3
:105380001A41D20708D503F1007303F59063B1EB1E
:10539000431F01D162B630BD2188002341FA03F2D8
:1053A00012F0010227D101259D402943218062B6D8
:1053B000164DD9B201712C6844F002042C6055F8E6
:1053C000044C03F1007344F0020445F8044C03F567
:1053D00090630F4C5B0182252560A176A177217631
:1053E000E17703601A605A609A60DA601A615A6164
:1053F0009A61DA6130BD0133102BCFD162B6002241
:105400000260037130BD00BF788FFF1F40800440F1
:105410000080004003790F2B10D8094A137072B630
:1054200008490279012303FA02F20B8823EA0203F6
:105430000B8062B61023037100230360704700BF26
:105440001A800040788FFF1F70B50479024620460D
:10545000FFF77CFF0D7906462846FFF777FF864267
:1054600005D215710C711368086810600B6070BD6F
:10547000F8B50D7904462846FFF768FF1679074608
:105480003046FFF763FF874205D20E7115710B6836
:1054900010680860136025792846FFF757FF0E79DA
:1054A00007463046FFF752FF874205D226710D713D
:1054B0002368086820600B600C792046FFF746FFE0
:1054C000157906462846FFF741FF864205D20D7141
:1054D00014710B68106808601360F8BD2DE9F04185
:1054E00016791D4604463046FFF730FF2F79804677
:1054F0003846FFF72BFF804505D217712E711368D0
:10550000286810602B600E793046FFF71FFF17796F
:1055100080463846FFF71AFF804505D20F71167195
:105520000B6810680860136026793046FFF70EFF9D
:105530000F7980463846FFF709FF804505D227716D
:105540000E712368086820600B6016793046FFF7FB
:10555000FDFE07462879FFF7F9FE874206D20B7950
:105560000E7113710B681068086013600E79304675
:10557000FFF7ECFE07461079FFF7E8FE874206D2F8
:10558000237926710B712368086820600B601479F9
:105590002046FFF7DBFE06462879FFF7D7FE864256
:1055A00006D20B790C7113710B68106808601360D8
:1055B000BDE8F08110B5044600F07AF9627F1ABBAD
:1055C000237F012B0CD1124B196819B96161A161BC
:1055D0001C6003E062615A68A26154615C6011E082
:1055E000032B0FD10A4B996819B96161A1619C60C5
:1055F00003E06261DA68A2615461DC60054B4FF040
:1056000080521A600123637700F059F910BD00BF82
:105610007C8FFF1F04ED00E070B50C4D002600F0FC
:1056200047F9AC6802466CB16369AB600BB19E612F
:1056300000E0EB60104600F042F96677A368204670
:105640009847ECE700F03BF970BD00BF7C8FFF1F6F
:10565000FFF7E2BF10B5044600F02AF9637F0BB3F1
:10566000237F012B0BD1A36962690BB15A6101E061
:105670000F490A6062696AB90D4A53600EE0032B54
:105680000CD1A36962690BB15A6101E008498A60D3
:1056900062690AB1936101E0054AD3600023637730
:1056A000012400E01C4600F00AF9204610BD00BFAE
:1056B0007C8FFF1F037F012B0FD1437F53B1836981
:1056C00042690BB15A6101E00E490A60426992B920
:1056D0000C4A5360002303777047032B10D1437F9C
:1056E000002BF7D0836942690BB15A6101E005498B
:1056F0008A6042690AB19361ECE7024AD360E9E744
:10570000704700BF7C8FFF1F002310B5C3600446A5
:1057100000F0CEF8044B1A691C610123A2602375C6
:1057200000F0CDF810BD00BF7C8FFF1F15494B69FD
:1057300030B513B98360C36009E004681A68944205
:1057400007D20025121B8360C560D8601A604861CB
:1057500015E002681C689968121B026061B10C6850
:10576000A2420B46F5D28160C968C160D860C168A9
:10577000A21A88601A6002E08160C3609860022308
:10578000037530BD7C8FFF1F10B5044600F090F804
:10579000237DDBB2022B0ED1A3682BB1E26819681E
:1057A000DA6022680A441A60E2680AB1936014E081
:1057B0000C4A536111E0012B11D10A4A13699C4232
:1057C00006D1A368136108E09A68944203D0134697
:1057D000002BF9D101E0A2689A600023237500F044
:1057E0006EF810BD7C8FFF1F037D70B505460C461B
:1057F00016460BB1FFF7C8FF6CB1022C4FF0000347
:105800008CBF023C1C462E612C606B602846BDE8B4
:105810007040FFF779BF70BD037D70B504460D463B
:1058200016460BB1FFF7B0FF5DB1022D8CBFAB1E6A
:105830000023266184E828002046BDE87040FFF779
:1058400063BF70BD70B5154D6C690026BCB123688F
:1058500013B1013B236012E0A26802B1D36020695A
:105860006A61036826751B682246002198476368B1
:105870001BB123602046FFF759FF6C69E6E700F093
:1058800017F800232C692B6100F019F82CB1A568DA
:105890002046FFF74BFF2C46F8E770BD7C8FFF1FBB
:1058A000024A136801331360FFF7CCBF448CFF1F1B
:1058B000EFF3108072B6B0FA80F04009704700B183
:1058C00062B67047704770477047FFFF70470368C4
:1058D00030B523B100249C600124DC6017E0194C32
:1058E000236843F40003236000BF174B01241C60AE
:1058F00003F58073154C036003689D683DB1103358
:10590000A3420360F8D900230360184630BD046841
:105910000F4B226023441B110E4D0322A2600E4A3E
:1059200045F823100179995444335A11920002F139
:10593000604202F56142012003F01F0300FA03F305
:10594000136030BD3C800440007003403F71034051
:10595000008FFCBF9089FF1F44E400E0016830B570
:10596000A1B10B4B0B441B1103F14402551101244F
:1059700002F01F0204FA02F2064C44F82520064AFF
:10598000064C42F8234000238B60036030BD00BF0B
:10599000008FFCBF80E100E09089FF1FCD58000020
:1059A000024B01221A60024B1B6818470C7103401E
:1059B0009089FF1F024B01221A60024B5B68184757
:1059C0001C7103409089FF1F024B01221A60024B99
:1059D0009B6818472C7103409089FF1F024B0122DE
:1059E0001A60024BDB6818473C7103409089FF1F27
:1059F00004F02ABF04F028BF04F02EBF04F02CBF2F
:105A000004F02ABF04F028BFF8B506460C468F18EC
:105A10000025BC4207D0336814F8011B1B683046D0
:105A200098470544F5E72846F8BD2DE9F0410025E3
:105A30008C688AB0074688462E4694B12B462122B0
:105A400001A9404601F0DFFA3B68202C22465B6842
:105A500028BF202201A938461544A41A98470644B5
:105A6000EBE730460AB0BDE8F08107B5054B1B886F
:105A7000ADF80430036802225B6801A9984703B0BF
:105A80005DF804FBF4E2000010B5036814465B689F
:105A90009847204610BD0EB403B503AA52F8041B64
:105AA000019205F0A9FF02B05DF804EB03B0704766
:105AB0000EB403B503AA52F8041B019205F09CFF33
:105AC00002B05DF804EB03B0704770B505468AB0CC
:105AD00022B90368C9B21B6898472FE0012A08BFA2
